S00C00006D61696E2E7372656373
S11300007AC0000098C0000096C0000000C2000042
S11300105EC20000BCC200001AC300008CC0000015
S11300208AC0000088C0000086C0000084C00000B0
S113003082C0000080C000007EC000007CC00000C0
S11300407AC0000078C0000076C0000074C00000D0
S113005072C0000070C000006EC000006CC00000E0
S11300606AC0000068C0000066C0000064C00000F0
S113007062C0000060C000005EC000005CC0000000
S11300805AC0000058C0000056C0000054C0000010
S113009052C0000050C000004EC000005FC000000D
S11300A04AC0000048C00000AEC7000044C00000C1
S11300B042C0000040C000003EC000003CC0000040
S11300C03AC0000038C0000036C0000034C0000050
S11300D032C0000030C000002EC000002CC0000060
S11300E02AC000003C01F701F901FB01FD01FF01F9
S11300F001020302050211241FBECFEFD1E2DEBFCD
S1130100CDBF00E00CBF12E0A0E0B2E0E2E9F4E110
S113011000E00BBF02C007900D92A030B107D9F7E1
S113012022E0A0E0B2E001C01D92AE39B207E1F7CF
S11301307CD00C94470A64CF90930302809302020C
S113014070930102609300020895F894880F8093DD
S1130150BA0085EC8093BC00789408951F920F92A6
S11301600FB60F9211240BB60F922F933F934F9318
S11301705F936F937F938F939F93AF93BF93EF930B
S1130180FF938091B900887F803849F018F4882360
S113019019F128C0883A71F0883BA9F023C08091F6
S11301A0BB00E0910202F0910302199585EC809363
S11301B0BC001BC0E0910002F0910102199585EC8E
S11301C08093BC0012C0E0910002F09101021995E5
S11301D085EC8093BC0009C0ECEBF0E0108285EC68
S11301E0808303C085EC8093BC00FF91EF91BF91A5
S11301F0AF919F918F917F916F915F914F913F91BB
S11302002F910F900BBE0F900FBE0F901F9018955B
S113021090E0909305028093040208958091040273
S1130220909105028093BB00089580E18EDF6EE01B
S113023071E088E091E080DF2FEF8DE399E42150B5
S113024080409040E1F700C000002FEF87EA91E67C
S1130250215080409040E1F700C00000E09104028A
S1130260F09105027197E930F105C0F78827EE583F
S1130270FF4F8F4F0C941A0A03D72FEF8DE399E4A5
S1130280215080409040E1F700C00000F4D68091F6
S11302900402909105028797C9F7F2D62FEF8DE3F8
S11302A099E4215080409040E1F700C00000809123
S11302B0040290910502409104025091050221E04C
S11302C0419709F420E081E04231510509F480E0CE
S11302D0322F382B809104029091050221E043973C
S11302E009F420E0409104025091050291E0443168
S11302F0510509F490E0409104025091050281E017
S11303004531510509F480E06091040270910502C1
S113031041E06631710509F440E0232B922B892BCF
S113032011F4442311F09DD699CFA0D680910402F4
S1130330909105028697C9F7A3D62FEF8DE399E430
S1130340215080409040E1F700C0000080910402F9
S113035090910502409104025091050221E04197D9
S113036009F420E081E04231510509F480E0322FA4
S1130370382B809104029091050221E0439709F4FF
S113038020E0409104025091050291E0443151056E
S113039009F490E0409104025091050281E0453156
S11303A0510509F480E0609104027091050241E076
S11303B06631710509F440E0232B922B892B11F44B
S11303C0442311F04ED64ACF51D680910402909125
S11303D005028697C9F754D62FEF8DE399E421508F
S11303E080409040E1F700C000003BD637CF48D6AC
S11303F035CF46D633CF44D631CF42D62FCF40D691
S11304002DCF3ED62BCF3CD629CF2BD627CF1F922C
S11304100F920FB60F9211240BB60F922F933F93A6
S11304204F935F936F937F938F939F93AF93BF93F8
S1130430EF93FF93809124019091250190931502ED
S113044080931402A0911402B091150280911202BB
S113045090911302A81BB90B20E432E44FE050E062
S1130460F7D724E234EF40E050E0C2D7309385025E
S113047020938402A0918402B09185022EED33E092
S1130480E1D79B01AC0160E07AEC8AE99BE3B0D749
S1130490309393022093920280911402909115025A
S11304A09093130280931202FF91EF91BF91AF9149
S11304B09F918F917F916F915F914F913F912F9178
S11304C00F900BBE0F900FBE0F901F9018951F92A8
S11304D00F920FB60F9211240BB60F922F933F93E6
S11304E04F935F936F937F938F939F93AF93BF9338
S11304F0EF93FF9380912401909125019093110231
S113050080931002A0911002B091110280910E020A
S113051090910F02A81BB90B20E432E44FE050E0A5
S113052097D724E234EF40E050E062D730939B0247
S113053020939A02A0919A02B0919B022CE632E099
S113054081D79B01AC0160E07AEC8AE99BE350D748
S113055030937F0220937E028091100290911102C9
S113056090930F0280930E02FF91EF91BF91AF9190
S11305709F918F917F916F915F914F913F912F91B7
S11305800F900BBE0F900FBE0F901F9018951F92E7
S11305900F920FB60F9211240BB60F922F933F9325
S11305A04F935F936F937F938F939F93AF93BF9377
S11305B0EF93FF93809124019091250190930D0274
S11305C080930C02A0910C02B0910D0280910A025A
S11305D090910B02A81BB90B20E432E44FE050E0E9
S11305E037D724E234EF40E050E002D730937B0267
S11305F020937A02A0917A02B0917B022EED33E02F
S113060021D79B01AC0160E07AEC8AE99BE3F0D648
S1130610309399022093980280910C0290910D02DC
S113062090930B0280930A02FF91EF91BF91AF91D7
S11306309F918F917F916F915F914F913F912F91F6
S11306400F900BBE0F900FBE0F901F9018951F9226
S11306500F920FB60F9211240BB60F922F933F9364
S11306604F935F936F937F938F939F93AF93BF93B6
S1130670EF93FF93809124019091250190930902B7
S113068080930802A0910802B091090280910602A9
S113069090910702A81BB90B20E432E44FE050E02C
S11306A0D7D624E234EF40E050E0A2D6309395024E
S11306B020939402A0919402B09195022EED33E020
S11306C0C1D69B01AC0160E07AEC8AE99BE390D649
S11306D030938F0220938E02809108029091090238
S11306E09093070280930602FF91EF91BF91AF911F
S11306F09F918F917F916F915F914F913F912F9136
S11307000F900BBE0F900FBE0F901F9018958CE0AA
S11307108093810008958CE08093910008959093D4
S1130720890080938800089590938B0080938A00B9
S1130730089590938D0080938C0008959093990070
S11307408093980008956091920270919302072E0D
S1130750000C880B990B35D59B01AC0160E070E867
S11307608BEB94E492D4609372027093730280933F
S11307707402909375026091720270917302809179
S113078074029091750223EC35EF48E850E4CDD51E
S113079060936E0270936F02809370029093710263
S11307A0609172027091730280917402909175024B
S11307B027EE3BEF49EE5EE3B8D52091620230911B
S11307C06302409164025091650260D460936A02AE
S11307D070936B0280936C0290936D02609172022D
S11307E070917302809174029091750220918A0233
S11307F030918B0240918C0250918D0246D420E0BE
S113080030E0A90192D560936602709367028093E9
S113081068029093690260916A0270916B02809100
S11308206C0290916D0220E030EC4FE754E479D5EE
S1130830181664F480E090ECAFE7B4E480936A02A5
S113084090936B02A0936C02B0936D0260916A0264
S113085070916B0280916C0290916D0220E030E007
S1130860A90178D4882344F410926A0210926B028E
S113087010926C0210926D0280916A0290916B0248
S1130880A0916C02B0916D02809362029093630216
S1130890A0936402B09365028091720290917302F6
S11308A0A0917402B091750280938A0290938B0296
S11308B0A0938C02B0938D0260916E0270916F02CE
S11308C0809170029091710220916A0230916B02C2
S11308D040916C0250916D02D9D3209166023091FF
S11308E067024091680250916902D0D360935E021E
S11308F070935F02809360029093610260915E0244
S113090070915F02809160029091610220E030E07A
S1130910A90120D4882344F410925E0210925F024D
S1130920109260021092610260915E0270915F0207
S1130930809160029091610220E030EC4FE754E432
S1130940F0D4181664F480E090ECAFE7B4E480933C
S11309505E0290935F02A0936002B0936102609183
S11309605E0270915F028091600290916102F6D301
S1130970CB01D5CE089560917E0270917F02072E3F
S1130980000C880B990B1DD49B01AC0160E070E84E
S11309908BEB94E47AD360935A0270935B02809356
S11309A05C0290935D0260915A0270915B028091A7
S11309B05C0290915D0223EC35EF48E850E4B5D435
S11309C06093560270935702809358029093590291
S11309D060915A0270915B0280915C0290915D0279
S11309E027EE3BEF49EE5EE3A0D420914A0230911A
S11309F04B0240914C0250914D0248D360935202F5
S1130A0070935302809354029093550260915A025A
S1130A1070915B0280915C0290915D02209176025C
S1130A203091770240917802509179022ED320E0E0
S1130A3030E0A9017AD460934E0270934F02809300
S1130A40500290935102609152027091530280912E
S1130A5054029091550220E030EC4FE754E461D405
S1130A60181664F480E090ECAFE7B4E4809352028B
S1130A7090935302A0935402B09355026091520292
S1130A8070915302809154029091550220E030E01D
S1130A90A90160D3882344F41092520210925302A5
S1130AA01092540210925502809152029091530276
S1130AB0A0915402B091550280934A0290934B0244
S1130AC0A0934C02B0934D0280915A0290915B0224
S1130AD0A0915C02B0915D028093760290937702BC
S1130AE0A0937802B09379026091560270915702F4
S1130AF080915802909159022091520230915302F0
S1130B004091540250915502C1D220914E0230912D
S1130B104F024091500250915102B8D26093460264
S1130B207093470280934802909349026091460271
S1130B3070914702809148029091490220E030E090
S1130B40A90108D3882344F4109246021092470264
S1130B501092480210924902609146027091470235
S1130B60809148029091490220E030EC4FE754E430
S1130B70D8D3181664F480E090ECAFE7B4E4809323
S1130B80460290934702A0934802B09349026091B1
S1130B904602709147028091480290914902DED248
S1130BA0CB01C2CD08956091980270919902072EED
S1130BB0000C880B990B05D39B01AC0160E070E835
S1130BC08BEB94E462D2609342027093430280936D
S1130BD044029093450260914202709143028091D5
S1130BE044029091450223EC35EF48E850E49DD34C
S1130BF060933E0270933F028093400290934102BF
S1130C0060914202709143028091440290914502A6
S1130C1027EE3BEF49EE5EE388D320913202309118
S1130C203302409134025091350230D260933A023B
S1130C3070933B0280933C0290933D026091420288
S1130C407091430280914402909145022091860262
S1130C5030918702409188025091890216D220E097
S1130C6030E0A90162D36093360270933702809317
S1130C7038029093390260913A0270913B0280915C
S1130C803C0290913D0220E030EC4FE754E449D31C
S1130C90181664F480E090ECAFE7B4E480933A0271
S1130CA090933B02A0933C02B0933D0260913A02C0
S1130CB070913B0280913C0290913D0220E030E033
S1130CC0A90148D2882344F410923A0210923B02BC
S1130CD010923C0210923D0280913A0290913B02A4
S1130CE0A0913C02B0913D02809332029093330272
S1130CF0A0933402B0933502809142029091430252
S1130D00A0914402B0914502809386029093870299
S1130D10A0938802B093890260913E0270913F02D1
S1130D20809140029091410220913A0230913B021D
S1130D3040913C0250913D02A9D12091360230915C
S1130D4037024091380250913902A0D160932E02AB
S1130D5070932F02809330029093310260912E029F
S1130D6070912F02809130029091310220E030E0A6
S1130D70A901F0D1882344F410922E0210922F027C
S1130D80109230021092310260912E0270912F0263
S1130D90809130029091310220E030EC4FE754E42E
S1130DA0C0D2181664F480E090ECAFE7B4E480930A
S1130DB02E0290932F02A0933002B09331026091DF
S1130DC02E0270912F028091300290913102C6D18F
S1130DD0CB01AFCC089560918E0270918F02072EE3
S1130DE0000C880B990BEDD19B01AC0160E070E81D
S1130DF08BEB94E44AD160932A0270932B02809384
S1130E002C0290932D0260912A0270912B02809102
S1130E102C0290912D0223EC35EF48E850E485D262
S1130E2060932602709327028093280290932902EC
S1130E3060912A0270912B0280912C0290912D02D4
S1130E4027EE3BEF49EE5EE370D220911A02309117
S1130E501B0240911C0250911D0218D16093220282
S1130E6070932302809324029093250260912A02B6
S1130E7070912B0280912C0290912D02209180027E
S1130E80309181024091820250918302FED020E091
S1130E9030E0A9014AD260931E0270931F0280932E
S1130EA0200290932102609122027091230280918A
S1130EB024029091250220E030EC4FE754E431D233
S1130EC0181664F480E090ECAFE7B4E48093220257
S1130ED090932302A0932402B093250260912202EE
S1130EE070912302809124029091250220E030E049
S1130EF0A90130D1882344F41092220210922302D3
S1130F0010922402109225028091220290912302D1
S1130F10A0912402B091250280931A0290931B029F
S1130F20A0931C02B0931D0280912A0290912B027F
S1130F30A0912C02B0912D028093800290938102A3
S1130F40A0938202B09383026091260270912702DB
S1130F50809128029091290220912202309123024B
S1130F60409124025091250291D020911E0230918B
S1130F701F02409120025091210288D060931602F2
S1130F8070931702809318029093190260911602CD
S1130F9070911702809118029091190220E030E0BC
S1130FA0A901D8D0882344F4109216021092170293
S1130FB01092180210921902609116027091170291
S1130FC0809118029091190220E030EC4FE754E42C
S1130FD0A8D1181664F480E090ECAFE7B4E48093F1
S1130FE0160290931702A0931802B093190260910D
S1130FF01602709117028091180290911902AED0D6
S1131000CB019CCB08951F920F920FB60F9211241F
S11310100BB60F922F933F934F935F936F937F93EE
S11310208F939F93AF93BF93EF93FF938CDBA3DCDA
S1131030BADDD1DE1092A5001092A400FF91EF91C9
S1131040BF91AF919F918F917F916F915F914F91DC
S11310503F912F910F900BBE0F900FBE0F901F90DA
S1131060189589E982B953DB56CB089585E582B991
S11310704EDB51CB08958AEA82B949DB4CCB089503
S1131080109281001092910008955058BB27AA270E
S11310900ED00DC1FED030F003D120F031F49F3FCB
S11310A011F41EF4F3C00EF4E095E7FBE9C0E92F58
S11310B00FD180F3BA17620773078407950718F0F6
S11310C071F49EF527C10EF4E0950B2EBA2FA02DD6
S11310D00B01B90190010C01CA01A0011124FF27E1
S11310E0591B99F0593F50F4503E68F11A16F040DC
S11310F0A22F232F342F4427585FF3CF46953795DB
S11311002795A795F0405395C9F77EF41F16BA0B9F
S1131110620B730B840BBAF09150A1F0FF0FBB1F4D
S1131120661F771F881FC2F70EC0BA0F621F731F96
S1131130841F48F4879577956795B795F7959E3FF3
S113114008F0B3CF9395880F08F09927EE0F979581
S11311508795089571D008F481E0089504D06894C7
S1131160B111D9C00895BCD088F09F5790F0B92F21
S11311709927B751A0F0D1F0660F771F881F991FE8
S11311801AF0BA95C9F712C0B13081F0C3D0B1E0FA
S11311900895C0C0672F782F8827B85F39F0B93F0A
S11311A0CCF3869577956795B395D9F73EF49095EA
S11311B08095709561957F4F8F4F9F4F0895E89468
S11311C009C097FB3EF490958095709561957F4F8B
S11311D08F4F9F4F9923A9F0F92F96E9BB27939539
S11311E0F695879577956795B795F111F8CFFAF449
S11311F0BB0F11F460FF1BC06F5F7F4F8F4F9F4F7A
S113120016C0882311F096E911C0772321F09EE8D7
S1131210872F762F05C0662371F096E8862F70E03D
S113122060E02AF09A95660F771F881FDAF7880F17
S11312309695879597F90895990F0008550FAA0B6D
S1131240E0E8FEEF16161706E807F907C0F01216D5
S11312501306E407F50798F0621B730B840B950BD8
S113126039F40A2661F0232B242B252B21F408952D
S11312700A2609F4A140A6958FEF811D811D0895CA
S113128097F99F6780E870E060E008959FEF80EC35
S1131290089500240A9416161706180609060895D8
S11312A000240A9412161306140605060895092E3E
S11312B00394000C11F4882352F0BB0F40F4BF2BAD
S11312C011F460FF04C06F5F7F4F8F4F9F4F0895ED
S11312D057FD9058440F551F59F05F3F71F04795E3
S11312E0880F97FB991F61F09F3F79F087950895C8
S11312F0121613061406551FF2CF4695F1DF08C0E7
S1131300161617061806991FF1CF86957105610503
S113131008940895E894BB2766277727CB0197F9AB
S113132008958ADF08F48FEF08950BD0C0CFB1DFA2
S113133028F0B6DF18F0952309F0A2CFA7CF112427
S1131340EACFC6DFA0F3959FD1F3950F50E0551F68
S1131350629FF001729FBB27F00DB11D639FAA2706
S1131360F00DB11DAA1F649F6627B00DA11D661F55
S1131370829F2227B00DA11D621F739FB00DA11D76
S1131380621F839FA00D611D221F749F3327A00D30
S1131390611D231F849F600D211D822F762F6A2FCC
S11313A011249F5750408AF0E1F088234AF0EE0F51
S11313B0FF1FBB1F661F771F881F91505040A9F75E
S11313C09E3F510570F05CCFA6CF5F3FECF3983E93
S11313D0DCF3869577956795B795F795E7959F5FC5
S11313E0C1F7FE2B880F911D9695879597F908955F
S11313F0A1E21A2EAA1BBB1BFD010DC0AA1FBB1F15
S1131400EE1FFF1FA217B307E407F50720F0A21B86
S1131410B30BE40BF50B661F771F881F991F1A94F3
S113142069F760957095809590959B01AC01BD011D
S1131430CF010895EE0FFF1F881F8BBF0790F69111
S1131440E02D19940BD0B7FF0895821B930B0895D8
S1131450B7FF13C012D0821B930B0895A29FB00153
S1131460B39FC001A39F700D811D1124911DB29FD4
S1131470700D811D1124911D0895F0DFA59F900D1D
S1131480B49F900DA49F800D911D11240895F8948C
S1051490FFCF88
S9030000FC
