S00C00006D61696E2E7372656373
S113000071C000008FC000008DC0000005C1000059
S113001067C10000C7C1000025C2000083C0000002
S113002081C000007FC000007DC000007BC00000D4
S113003079C0000077C0000075C0000073C00000E4
S113004071C000006FC000006DC000006BC00000F4
S113005069C0000067C0000065C0000063C0000004
S113006061C000005FC000005DC000005BC0000014
S113007059C0000057C0000055C0000053C0000024
S113008051C000004FC000004DC000004BC0000034
S113009049C0000047C0000045C0000056C0000031
S11300A041C000003FC00000F4C600003BC0000097
S11300B039C0000037C0000035C0000033C0000064
S11300C031C000002FC000002DC000002BC0000074
S11300D029C0000027C0000025C0000023C0000084
S11300E021C0000011241FBECFEFD1E2DEBFCDBF7F
S11300F000E00CBF12E0A0E0B2E0EAECF3E100E0C3
S11301000BBF02C007900D92A030B107D9F722E0CF
S1130110A0E0B2E001C01D92A23AB207E1F7E7D62F
S11301200C94E3096DCF90930302809302027093C1
S11301300102609300020895F894880F8093BA0036
S113014085EC8093BC00789408951F920F920FB6AB
S11301500F9211240BB60F922F933F934F935F93FB
S11301606F937F938F939F93AF93BF93EF93FF937B
S11301708091B900887F803849F018F4882319F1F8
S113018028C0883A71F0883BA9F023C08091BB0055
S1130190E0910202F0910302199585EC8093BC0072
S11301A01BC0E0910002F0910102199585EC809347
S11301B0BC0012C0E0910002F0910102199585EC97
S11301C08093BC0009C0ECEBF0E0108285EC8083E6
S11301D003C085EC8093BC00FF91EF91BF91AF9178
S11301E09F918F917F916F915F914F913F912F914B
S11301F00F900BBE0F900FBE0F901F90189590E0BC
S113020090930502809304020895809104029091D2
S113021005028093BB0008951F920F920FB60F92B0
S113022011240BB60F922F933F934F935F936F93C9
S11302307F938F939F93AF93BF93EF93FF9380919B
S11302402401909125019093150280931402A091AA
S11302501402B09115028091120290911302A81B0E
S1130260B90B20E432E44FE050E00E94C40924E2D8
S113027034EF40E050E00E949C09309389022093BF
S11302808802A0918802B09189022EED33E00E9489
S1130290BE099B01AC0160E07AEC8AE99BE30E9411
S11302A09C093093970220939602809114029091B6
S11302B015029093130280931202FF91EF91BF9164
S11302C0AF919F918F917F916F915F914F913F91EA
S11302D02F910F900BBE0F900FBE0F901F9018958B
S11302E01F920F920FB60F9211240BB60F922F93F9
S11302F03F934F935F936F937F938F939F93AF93AA
S1130300BF93EF93FF9380912401909125019093E3
S1130310110280931002A0911002B09111028091F9
S11303200E0290910F02A81BB90B20E432E44FE0B7
S113033050E00E94C40924E234EF40E050E0FCD7CE
S113034030939F0220939E02A0919E02B0919F023F
S11303502CE632E00E94BE099B01AC0160E07AEC1D
S11303608AE99BE3E9D73093830220938202809148
S113037010029091110290930F0280930E02FF914C
S1130380EF91BF91AF919F918F917F916F915F9109
S11303904F913F912F910F900BBE0F900FBE0F9076
S11303A01F9018951F920F920FB60F9211240BB63F
S11303B00F922F933F934F935F936F937F938F93FA
S11303C09F93AF93BF93EF93FF93809124019091F8
S11303D0250190930D0280930C02A0910C02B09120
S11303E00D0280910A0290910B02A81BB90B20E424
S11303F032E44FE050E0C8D724E234EF40E050E06C
S11304009BD730937F0220937E02A0917E02B0910D
S11304107F022EED33E0B2D79B01AC0160E07AECB1
S11304208AE99BE389D730939D0220939C028091B3
S11304300C0290910D0290930B0280930A02FF919B
S1130440EF91BF91AF919F918F917F916F915F9148
S11304504F913F912F910F900BBE0F900FBE0F90B5
S11304601F9018951F920F920FB60F9211240BB67E
S11304700F922F933F934F935F936F937F938F9339
S11304809F93AF93BF93EF93FF9380912401909137
S113049025019093090280930802A0910802B0916B
S11304A009028091060290910702A81BB90B20E46F
S11304B032E44FE050E068D724E234EF40E050E00B
S11304C03BD73093990220939802A0919802B0915F
S11304D099022EED33E052D79B01AC0160E07AEC37
S11304E08AE99BE329D73093930220939202809167
S11304F00802909109029093070280930602FF91EB
S1130500EF91BF91AF919F918F917F916F915F9187
S11305104F913F912F910F900BBE0F900FBE0F90F4
S11305201F9018958BEA8093800080EE84B908951B
S113053083E88093900088E08DB908958CE08093DF
S1130540810008958CE08093910008959093890030
S113055080938800089590938B0080938A00089577
S113056090938D0080938C000895909399008093CC
S1130570980008956091960270919702072E000CDE
S1130580880B990BC2D59B01AC0160E070E88BEB42
S113059094E41FD560937202709373028093740283
S11305A0909375026091720270917302809174024B
S11305B09091750223EC35EF48E850E45AD66093E5
S11305C06E0270936F028093700290937102609137
S11305D0720270917302809174029091750227EEF9
S11305E03BEF49EE5EE345D620916202309163020F
S11305F04091640250916502EDD460936A02709355
S11306006B0280936C0290936D0260917202709100
S11306107302809174029091750220918E02309140
S11306208F024091900250919102D3D420E030E0A7
S1130630A9011FD6609366027093670280936802D3
S11306409093690260916A0270916B0280916C02CE
S113065090916D0220E030EC4FE754E406D6181672
S113066064F480E090ECAFE7B4E480936A02909382
S11306706B02A0936C02B0936D0260916A02709158
S11306806B0280916C0290916D0220E030E0A90130
S113069005D5882344F410926A0210926B021092DA
S11306A06C0210926D0280916A0290916B02A0918B
S11306B06C02B0916D028093620290936302A093E6
S11306C06402B09365028091720290917302A091CA
S11306D07402B091750280938E0290938F02A0935E
S11306E09002B093910260916E0270916F028091BA
S11306F070029091710220916A0230916B024091D4
S11307006C0250916D0266D42091660230916702AA
S113071040916802509169025DD460935E027093C7
S11307205F02809360029093610260915E02709117
S11307305F02809160029091610220E030E0A901A3
S1130740ADD4882344F410925E0210925F0210929A
S113075060021092610260915E0270915F0280916A
S113076060029091610220E030EC4FE754E47DD5C3
S1130770181664F480E090ECAFE7B4E480935E0272
S113078090935F02A0936002B093610260915E0255
S113079070915F02809160029091610283D4CB01D9
S11307A0D5CE08956091820270918302072E000CC9
S11307B0880B990BAAD49B01AC0160E070E88BEB29
S11307C094E407D460935A0270935B0280935C02B2
S11307D090935D0260915A0270915B0280915C0279
S11307E090915D0223EC35EF48E850E442D56093E4
S11307F05602709357028093580290935902609165
S11308005A0270915B0280915C0290915D0227EE26
S11308103BEF49EE5EE32DD520914A0230914B0225
S113082040914C0250914D02D5D360935202709383
S11308305302809354029093550260915A0270912E
S11308405B0280915C0290915D0220917A0230916A
S11308507B0240917C0250917D02BBD320E030E0CA
S1130860A90107D560934E0270934F028093500202
S113087090935102609152027091530280915402FC
S11308809091550220E030EC4FE754E4EED4181672
S113089064F480E090ECAFE7B4E480935202909368
S11308A05302A0935402B093550260915202709186
S11308B05302809154029091550220E030E0A90146
S11308C0EDD3882344F410925202109253021092F2
S11308D05402109255028091520290915302A091B9
S11308E05402B091550280934A0290934B02A09314
S11308F04C02B0934D0280915A0290915B02A091F8
S11309005C02B0915D0280937A0290937B02A09383
S11309107C02B0937D0260915602709157028091DF
S11309205802909159022091520230915302409101
S11309305402509155024ED320914E0230914F02F1
S1130940409150025091510245D3609346027093F6
S11309504702809348029093490260914602709145
S11309604702809148029091490220E030E0A901B9
S113097095D3882344F410924602109247021092B1
S11309804802109249026091460270914702809198
S113099048029091490220E030EC4FE754E465D4DA
S11309A0181664F480E090ECAFE7B4E48093460258
S11309B090934702A0934802B09349026091460283
S11309C07091470280914802909149026BD3CB0108
S11309D0C2CD089560919C0270919D02072E000C77
S11309E0880B990B92D39B01AC0160E070E88BEB10
S11309F094E4EFD2609342027093430280934402E2
S1130A0090934502609142027091430280914402A6
S1130A109091450223EC35EF48E850E42AD46093E2
S1130A203E0270933F028093400290934102609192
S1130A30420270914302809144029091450227EE54
S1130A403BEF49EE5EE315D420913202309133023C
S1130A504091340250913502BDD260933A027093B2
S1130A603B0280933C0290933D026091420270915C
S1130A704302809144029091450220918A02309170
S1130A808B0240918C0250918D02A3D220E030E081
S1130A90A901EFD360933602709337028093380232
S1130AA09093390260913A0270913B0280913C022A
S1130AB090913D0220E030EC4FE754E4D6D3181671
S1130AC064F480E090ECAFE7B4E480933A0290934E
S1130AD03B02A0933C02B0933D0260913A027091B4
S1130AE03B0280913C0290913D0220E030E0A9015C
S1130AF0D5D2882344F410923A0210923B02109209
S1130B003C0210923D0280913A0290913B02A091E6
S1130B103C02B0913D028093320290933302A09341
S1130B203402B09335028091420290914302A09125
S1130B304402B091450280938A0290938B02A09361
S1130B408C02B0938D0260913E0270913F028091BD
S1130B5040029091410220913A0230913B0240912F
S1130B603C0250913D0236D2209136023091370238
S1130B7040913802509139022DD260932E02709325
S1130B802F02809330029093310260912E02709173
S1130B902F02809130029091310220E030E0A901CF
S1130BA07DD2882344F410922E0210922F021092C8
S1130BB030021092310260912E0270912F028091C6
S1130BC030029091310220E030EC4FE754E44DD3F1
S1130BD0181664F480E090ECAFE7B4E480932E023E
S1130BE090932F02A0933002B093310260912E02B1
S1130BF070912F02809130029091310253D2CB0137
S1130C00AFCC08956091920270919302072E000C6C
S1130C10880B990B7AD29B01AC0160E070E88BEBF6
S1130C2094E4D7D160932A0270932B0280932C0210
S1130C3090932D0260912A0270912B0280912C02D4
S1130C4090912D0223EC35EF48E850E412D36093E1
S1130C5026027093270280932802909329026091C0
S1130C602A0270912B0280912C0290912D0227EE82
S1130C703BEF49EE5EE3FDD220911A0230911B0254
S1130C8040911C0250911D02A5D1609322027093E1
S1130C902302809324029093250260912A0270918A
S1130CA02B0280912C0290912D022091840230918C
S1130CB0850240918602509187028BD120E030E07A
S1130CC0A901D7D260931E0270931F028093200261
S1130CD09093210260912202709123028091240258
S1130CE09091250220E030EC4FE754E4BED2181670
S1130CF064F480E090ECAFE7B4E480932202909334
S1130D002302A0932402B0932502609122027091E1
S1130D102302809124029091250220E030E0A90171
S1130D20BDD1882344F4109222021092230210921F
S1130D302402109225028091220290912302A09114
S1130D402402B091250280931A0290931B02A0936F
S1130D501C02B0931D0280912A0290912B02A09153
S1130D602C02B0912D028093840290938502A0936B
S1130D708602B093870260912602709127028091C7
S1130D80280290912902209122023091230240915D
S1130D902402509125021ED120911E0230911F027F
S1130DA0409120025091210215D160931602709354
S1130DB017028093180290931902609116027091A1
S1130DC01702809118029091190220E030E0A901E5
S1130DD065D1882344F410921602109217021092DF
S1130DE018021092190260911602709117028091F4
S1130DF018029091190220E030EC4FE754E435D208
S1130E00181664F480E090ECAFE7B4E48093160223
S1130E1090931702A0931802B093190260911602DE
S1130E207091170280911802909119023BD1CB0165
S1130E309CCB0895109289001092880010928B0028
S1130E4010928A0010928D0010928C0010929900DA
S1130E5010929800089585E582B98CED95E076DBD3
S1130E608CED95E078DB8CED95E07ADB8CED95E00C
S1130E707CCB089589E982B988EE93E067DB88EE3C
S1130E8093E069DB88EE93E06BDB88EE93E06DCB57
S1130E9008951F920F920FB60F9211240BB60F9262
S1130EA02F933F934F935F936F937F938F939F936E
S1130EB0AF93BF93EF93FF935DDB74DC8BDDA2DE16
S1130EC01092A5001092A400FF91EF91BF91AF91F1
S1130ED09F918F917F916F915F914F913F912F914E
S1130EE00F900BBE0F900FBE0F901F90189556D009
S1130EF080EF809369008FE080936A008CE38DBB60
S1130F0078948FEF81B989E982B91092200184E045
S1130F108093210183E28093A0008CE08093A10060
S1130F2082E0809372008EE390E09093A900809316
S1130F30A80080E180930101F5DAFADAFFDA02DB36
S1130F4088EE93E003DB88EE93E005DB88EE93E024
S1130F5007DB88EE93E009DB80E1EED865E071E021
S1130F608FEF90E0E0D881E080BB80910402909103
S1130F7005024197D1F75EDF2FEF83ED90E3215017
S1130F8080409040E1F700C0000065DF80910402DA
S1130F90909105028797C9F76DDFE7CF80917602BC
S1130FA090917702A0917802B0917902892F9A2FBB
S1130FB0AB2FBB27A7FDBA958093C500809176021D
S1130FC08093C40088E98093C10086E08093C200C6
S1130FD008955058BB27AA270ED00DC1FED030F07B
S1130FE003D120F031F49F3F11F41EF4F3C00EF44A
S1130FF0E095E7FBE9C0E92F0FD180F3BA17620748
S113100073078407950718F071F49EF527C10EF451
S1131010E0950B2EBA2FA02D0B01B90190010C0104
S1131020CA01A0011124FF27591B99F0593F50F41C
S1131030503E68F11A16F040A22F232F342F442774
S1131040585FF3CF469537952795A795F04053956C
S1131050C9F77EF41F16BA0B620B730B840BBAF03C
S11310609150A1F0FF0FBB1F661F771F881FC2F7A7
S11310700EC0BA0F621F731F841F48F487957795BB
S11310806795B795F7959E3F08F0B3CF9395880F72
S113109008F09927EE0F97958795089571D008F475
S11310A081E0089504D06894B111D9C00895BCD0EA
S11310B088F09F5790F0B92F9927B751A0F0D1F03D
S11310C0660F771F881F991F1AF0BA95C9F712C0C7
S11310D0B13081F0C3D0B1E00895C0C0672F782F3C
S11310E08827B85F39F0B93FCCF386957795679533
S11310F0B395D9F73EF490958095709561957F4F9F
S11311008F4F9F4F0895E89409C097FB3EF4909544
S11311108095709561957F4F8F4F9F4F9923A9F0CC
S1131120F92F96E9BB279395F6958795779567955B
S1131130B795F111F8CFFAF4BB0F11F460FF1BC09F
S11311406F5F7F4F8F4F9F4F16C0882311F096E932
S113115011C0772321F09EE8872F762F05C06623E0
S113116071F096E8862F70E060E02AF09A95660F99
S1131170771F881FDAF7880F9695879597F9089552
S1131180990F0008550FAA0BE0E8FEEF1616170694
S1131190E807F907C0F012161306E407F50798F0FC
S11311A0621B730B840B950B39F40A2661F0232B15
S11311B0242B252B21F408950A2609F4A140A69591
S11311C08FEF811D811D089597F99F6780E870E076
S11311D060E008959FEF80EC089500240A941616A9
S11311E0170618060906089500240A941216130611
S11311F0140605060895092E0394000C11F488239F
S113120052F0BB0F40F4BF2B11F460FF04C06F5FBA
S11312107F4F8F4F9F4F089557FD9058440F551F90
S113122059F05F3F71F04795880F97FB991F61F064
S11312309F3F79F087950895121613061406551FDB
S1131240F2CF4695F1DF08C0161617061806991F47
S1131250F1CF86957105610508940895E894BB273C
S113126066277727CB0197F908958ADF08F48FEF73
S113127008950BD0C0CFB1DF28F0B6DF18F0952366
S113128009F0A2CFA7CF1124EACFC6DFA0F3959F20
S1131290D1F3950F50E0551F629FF001729FBB2759
S11312A0F00DB11D639FAA27F00DB11DAA1F649F05
S11312B06627B00DA11D661F829F2227B00DA11DB8
S11312C0621F739FB00DA11D621F839FA00D611D3E
S11312D0221F749F3327A00D611D231F849F600D5F
S11312E0211D822F762F6A2F11249F5750408AF098
S11312F0E1F088234AF0EE0FFF1FBB1F661F771F24
S1131300881F91505040A9F79E3F510570F05CCF63
S1131310A6CF5F3FECF3983EDCF38695779567950F
S1131320B795F795E7959F5FC1F7FE2B880F911D41
S11313309695879597F90895A1E21A2EAA1BBB1BCF
S1131340FD010DC0AA1FBB1FEE1FFF1FA217B3078D
S1131350E407F50720F0A21BB30BE40BF50B661FA3
S1131360771F881F991F1A9469F760957095809567
S113137090959B01AC01BD01CF0108950BD0B7FF3F
S11313800895821B930B0895B7FF13C012D0821BDC
S1131390930B0895A29FB001B39FC001A39F700D4A
S11313A0811D1124911DB29F700D811D1124911D69
S11313B00895F0DFA59F900DB49F900DA49F800D1C
S10D13C0911D11240895F894FFCF45
S9030000FC
