:100000009AC00000B8C00000B6C00000ABC300003A
:1000100016C4000078C40000DAC40000ACC00000C0
:10002000AAC00000A8C00000A6C00000B0C0000028
:10003000A2C00000A0C000009EC000009CC0000044
:100040009AC0000098C0000096C0000094C0000054
:1000500092C0000090C000008EC000008CC0000064
:100060008AC0000088C0000086C0000084C0000074
:1000700082C0000080C000007EC000007CC0000084
:100080007AC0000078C0000076C0000074C0000094
:1000900072C0000070C000006EC00000E8C1000027
:1000A0006AC0000068C000000C94150A64C000001B
:1000B00062C0000060C000005EC000005CC00000C4
:1000C0005AC0000058C0000056C0000054C00000D4
:1000D00052C0000050C000004EC000004CC00000E4
:1000E0004AC00000570361036F037903850385034A
:1000F00085038503850385038503850385038503C0
:1001000085038503850385038503850385038503AF
:10011000850385038503850385038503850385039F
:1001200085038503850385038503850385037E0396
:100130007C038003820311241FBECFEFD1E2DEBF18
:10014000CDBF00E00CBF12E0A0E0B2E0E8E3F0E2D7
:1001500000E00BBF02C007900D92A634B107D9F79B
:1001600022E0A6E4B2E001C01D92A63FB207E1F78B
:10017000CFD20C941A1044CF84E0809368008BBBDC
:1001800083E080936D0078941092070108951F9288
:100190000F920FB60F9211240BB60F922F933F932D
:1001A0004F935F936F937F938F939F93AF93BF937F
:1001B000CF93EF93FF93E6E0F1E0C08180910002DE
:1001C000C82780818093000280914C0290914D025B
:1001D000019690934D0280934C0280914A02909137
:1001E0004B02019690934B0280934A028091480201
:1001F0009091490201969093490280934802809120
:1002000046029091470201969093470280934602DE
:100210004091460250914702952F990F990B242F38
:10022000352F492F592F692F792F892F0E944F0C75
:1002300087E092E00E94320CC0FF5AC080914802D1
:1002400090914902019711F585E092E00E94320CED
:100250002FEF83ED90E3215080409040E1F700C004
:10026000000089E092E00E94320C2FEF85EA9EE0C8
:10027000215080409040E1F700C0000085E092E00E
:100280000E94320C8FEF8093000232C080914C02AA
:1002900090914D02019711F58FE092E00E94320C8F
:1002A0002FEF83ED90E3215080409040E1F700C0B4
:1002B000000085E192E00E94320C2FEF85EA9EE07B
:1002C000215080409040E1F700C000008FE092E0B4
:1002D0000E94320C8FEF809300020AC080914C0282
:1002E00090914D02029724F010924D0210924C0210
:1002F000C1FF5AC08091480290914902019711F5BF
:100300008FE092E00E94320C2FEF83ED90E32150BA
:1003100080409040E1F700C0000085E192E00E943B
:10032000320C2FEF85EA9EE0215080409040E1F7AB
:1003300000C000008FE092E00E94320C8FEF8093AB
:10034000000232C080914A0290914B02019711F550
:1003500085E092E00E94320C2FEF83ED90E3215074
:1003600080409040E1F700C0000089E092E00E94E8
:10037000320C2FEF85EA9EE0215080409040E1F75B
:1003800000C0000085E092E00E94320C8FEF809365
:1003900000020AC080914A0290914B02029724F019
:1003A00010924B0210924A02C4FF39C0809146025B
:1003B00090914702019729F58FE192E00E94320C5B
:1003C0004091460250914702952F990F990B242F87
:1003D000352F492F592F692F792F892F0E944F0CC4
:1003E00087E092E00E94320C2FEF83ED90E32150E2
:1003F00080409040E1F700C000008FEF8093000242
:100400000EC08091460290914702029744F01092EC
:100410004702109246028DE292E00E94320CFF9158
:10042000EF91CF91BF91AF919F918F917F916F91FC
:100430005F914F913F912F910F900BBE0F900FBE88
:100440000F901F90189590935102809350027093D3
:100450004F0260934E020895F894880F8093BA007B
:1004600085EC8093BC0078940C94100C08951F9236
:100470000F920FB60F9211240BB60F922F933F934A
:100480004F935F936F937F938F939F93AF93BF939C
:10049000EF93FF938091B900887F803849F018F47A
:1004A000882319F128C0883A71F0883BA9F023C04D
:1004B0008091BB00E0915002F0915102199585ECBA
:1004C0008093BC001BC0E0914E02F0914F02199541
:1004D00085EC8093BC0012C0E0914E02F0914F0277
:1004E000199585EC8093BC0009C0ECEBF0E010821C
:1004F00085EC808303C085EC8093BC00FF91EF9175
:10050000BF91AF919F918F917F916F915F914F912B
:100510003F912F910F900BBE0F900FBE0F901F9029
:10052000189590E090935702809356020895809119
:100530005602909157028093BB0008958091560215
:1005400090915702C69701F585E392E00E94320C24
:1005500080E090E016C021E021BB2FEF38EF45E1AD
:10056000215030404040E1F700C0000011BA2FEFA9
:1005700038EF45E1215030404040E1F700C0000035
:100580000196853091053CF3089582E081BB8FE3AD
:100590009CE90197F1F700C0000011BA089581307D
:1005A000910509F040C0D9D08E36954031F0809148
:1005B000560290915702C497B1F7809156029091DC
:1005C0005702C497C1F4D0D78FE59AEE0197F1F79F
:1005D00000C000000E94DB0B9FEF25EA8EE09150E7
:1005E00020408040E1F700C00000CFDF8CE392E0C4
:1005F0000C94320C0895B8D78FE59AEE0197F1F775
:1006000000C000000E94DB0B9FEF25EA8EE09150B6
:1006100020408040E1F700C00000B7DF1092530295
:1006200010925202089582309105C1F4D8D78FE517
:100630009AEE0197F1F700C000000E94DB0B9FEFDC
:1006400025EA8EE0915020408040E1F700C0000094
:100650009CDF109253021092520208950397C1F446
:100660000E94A00B8FE59AEE0197F1F700C0000001
:100670000E94DB0B9FEF25EA8EE0915020408040E6
:10068000E1F700C0000081DF109253021092520285
:100690000895E0915602F09157023197E932F10541
:1006A000A0F58827EE58FF4F8F4F0C94110F82E072
:1006B00090E075DF84E090E09093550280935402BF
:1006C000089517D781E090E06ADF2FEF89E698E17F
:1006D000215080409040E1F700C00000089583E081
:1006E00090E05DDF84E090E09093550280935402A7
:1006F00008950C94DB0B0895E8C7089570C708951A
:10070000A9C708950C94A00B08950C94DB0B0895D1
:100710000E94100C80E1A0DE67E972E081E992E0BE
:1007200092DECED6B0D628DD81E080BB4091560265
:1007300050915702952F990F990B242F352F492F40
:10074000592F692F792F892F0E944F0C87E092E053
:100750000E94320C9EDFF2DEE9CF80915802909128
:10076000590208951F920F920FB60F9211240BB6E3
:100770000F922F933F934F935F936F937F938F933A
:100780009F93AF93BF93EF93FF9380912401909138
:1007900025019093690280936802A0916802B0914C
:1007A00069028091660290916702A81BB90B20E450
:1007B00032E44FE050E00E941F0F24E234EF40E0AB
:1007C00050E00E94EF0E3093DD022093DC02A091F6
:1007D000DC02B091DD022EED33E00E94190F9B0187
:1007E000AC0160E07AEC8AE99BE30E94EF0E309363
:1007F000EB022093EA028091680290916902909343
:100800006702809366028091580290915902019686
:100810009093590280935802FF91EF91BF91AF914D
:100820009F918F917F916F915F914F913F912F9108
:100830000F900BBE0F900FBE0F901F9018951F9238
:100840000F920FB60F9211240BB60F922F933F9376
:100850004F935F936F937F938F939F93AF93BF93C8
:10086000EF93FF938091240190912501909365026D
:1008700080936402A0916402B0916502809162024B
:1008800090916302A81BB90B20E432E44FE050E0E2
:100890000E941F0F24E234EF40E050E00E94EF0E70
:1008A0003093F3022093F202A091F202B091F3028E
:1008B0002CE632E00E94190F9B01AC0160E07AEC5B
:1008C0008AE99BE30E94EF0E3093D7022093D60271
:1008D000809164029091650290936302809362021A
:1008E000FF91EF91BF91AF919F918F917F916F9108
:1008F0005F914F913F912F910F900BBE0F900FBEC4
:100900000F901F9018951F920F920FB60F921124FF
:100910000BB60F922F933F934F935F936F937F93F9
:100920008F939F93AF93BF93EF93FF938091240195
:10093000909125019093610280936002A0916002E2
:10094000B091610280915E0290915F02A81BB90B89
:1009500020E432E44FE050E00E941F0F24E234EF25
:1009600040E050E00E94EF0E3093D3022093D20279
:10097000A091D202B091D3022EED33E00E94190F64
:100980009B01AC0160E07AEC8AE99BE30E94EF0EE8
:100990003093F1022093F002809160029091610205
:1009A00090935F0280935E02FF91EF91BF91AF91B0
:1009B0009F918F917F916F915F914F913F912F9177
:1009C0000F900BBE0F900FBE0F901F9018951F92A7
:1009D0000F920FB60F9211240BB60F922F933F93E5
:1009E0004F935F936F937F938F939F93AF93BF9337
:1009F000EF93FF93809124019091250190935D02E4
:100A000080935C02A0915C02B0915D0280915A02D9
:100A100090915B02A81BB90B20E432E44FE050E058
:100A20000E941F0F24E234EF40E050E00E94EF0EDE
:100A30003093ED022093EC02A091EC02B091ED0214
:100A40002EED33E00E94190F9B01AC0160E07AECBF
:100A50008AE99BE30E94EF0E3093E7022093E602BF
:100A600080915C0290915D0290935B0280935A02A8
:100A7000FF91EF91BF91AF919F918F917F916F9176
:100A80005F914F913F912F910F900BBE0F900FBE32
:100A90000F901F9018958BEA8093800080EE84B9A8
:100AA000089583E88093900088E08DB908958CE0E4
:100AB0008093810008958CE0809391000895909335
:100AC000890080938800089590938B0080938A001A
:100AD000089590938D0080938C00089590939900D1
:100AE000809398000895CF92DF92EF92FF92C0908A
:100AF0000102D0900202E0900302F09004026091A3
:100B0000EA027091EB02072E000C880B990B0E94F1
:100B1000D80D9B01AC01C701B601AED76093C602E8
:100B20007093C7028093C8029093C9026091C60275
:100B30007091C7028091C8029091C90228EB3EE1F2
:100B400045E850E40E948C0E6093C2027093C30289
:100B50008093C4029093C5026091C6027091C7024F
:100B60008091C8029091C90228EB3EE145E05EE326
:100B70000E948C0E2091B6023091B7024091B802CB
:100B80005091B9027AD76093BE027093BF028093EE
:100B9000C0029093C1026091C6027091C702809119
:100BA000C8029091C9022091E2023091E302409183
:100BB000E4025091E50260D720EF35E849EC5CE3B0
:100BC0000E948C0E6093BA027093BB028093BC02A9
:100BD0009093BD026091BE027091BF028091C002ED
:100BE0009091C10220E030EC4FE754E40E94880E5F
:100BF000181664F480E090ECAFE7B4E48093BE0292
:100C00009093BF02A093C002B093C1026091BE0254
:100C10007091BF028091C0029091C10220E030E04B
:100C2000A9018FD7882344F41092BE021092BF020C
:100C30001092C0021092C1028091BE029091BF0238
:100C4000A091C002B091C1028093B6029093B70206
:100C5000A093B802B093B9028091C6029091C702E6
:100C6000A091C802B091C9028093E2029093E3027E
:100C7000A093E402B093E5026091C2027091C302B6
:100C80008091C4029091C5022091BE023091BF02B2
:100C90004091C0025091C102F0D62091BA02309129
:100CA000BB024091BC025091BD02E7D66093B202F4
:100CB0007093B3028093B4029093B5026091B20234
:100CC0007091B3028091B4029091B50220E030E0BF
:100CD000A90137D7882344F41092B2021092B302CC
:100CE0001092B4021092B5026091B2027091B302F8
:100CF0008091B4029091B50220E030EC4FE754E4CB
:100D00000E94880E181664F480E090ECAFE7B4E41B
:100D10008093B2029093B302A093B402B093B50251
:100D20006091B2027091B3028091B4029091B502C9
:100D30000CD7CB01D3DEFF90EF90DF90CF900895DA
:100D4000CF92DF92EF92FF92C0900102D090020208
:100D5000E0900302F09004026091D6027091D702F5
:100D6000072E000C880B990B23D79B01AC01C70100
:100D7000B60182D66093AE027093AF028093B00248
:100D80009093B1026091AE027091AF028091B00277
:100D90009091B10228EB3EE145E850E4BDD7609365
:100DA000AA027093AB028093AC029093AD02609163
:100DB000AE027091AF028091B0029091B10228EB27
:100DC0003EE145E05EE3A8D720919E0230919F026C
:100DD0004091A0025091A10250D66093A602709358
:100DE000A7028093A8029093A9026091AE0270912D
:100DF000AF028091B0029091B1022091CE02309169
:100E0000CF024091D0025091D10236D620EF35E882
:100E100049EC5CE381D76093A2027093A3028093B4
:100E2000A4029093A5026091A6027091A7028091FE
:100E3000A8029091A90220E030EC4FE754E468D773
:100E4000181664F480E090ECAFE7B4E48093A60257
:100E50009093A702A093A802B093A9026091A60262
:100E60007091A7028091A8029091A90220E030E041
:100E7000A90167D6882344F41092A6021092A70213
:100E80001092A8021092A9028091A6029091A70246
:100E9000A091A802B091A90280939E0290939F0214
:100EA000A093A002B093A1028091AE029091AF02F4
:100EB000A091B002B091B1028093CE029093CF0284
:100EC000A093D002B093D1026091AA027091AB02BC
:100ED0008091AC029091AD022091A6023091A702C0
:100EE0004091A8025091A902C8D52091A202309148
:100EF000A3024091A4025091A502BFD560939A022B
:100F000070939B0280939C0290939D0260919A0241
:100F100070919B0280919C0290919D0220E030E0B4
:100F2000A9010FD6882344F410929A0210929B02D2
:100F300010929C0210929D0260919A0270919B0205
:100F400080919C0290919D0220E030EC4FE754E4A8
:100F5000DFD6181664F480E090ECAFE7B4E4809339
:100F60009A0290939B02A0939C02B0939D02609181
:100F70009A0270919B0280919C0290919D02E5D50E
:100F8000CB01A2DDFF90EF90DF90CF900895CF923C
:100F9000DF92EF92FF92C0900102D0900202E090A7
:100FA0000302F09004026091F0027091F102072EAA
:100FB000000C880B990BFCD59B01AC01C701B60155
:100FC0005BD56093960270939702809398029093FA
:100FD0009902609196027091970280919802909187
:100FE000990228EB3EE145E850E496D660939202E0
:100FF000709393028093940290939502609196026D
:1010000070919702809198029091990228EB3EE1AD
:1010100045E05EE381D620918602309187024091BF
:1010200088025091890229D560938E0270938F02B5
:101030008093900290939102609196027091970232
:1010400080919802909199022091DE023091DF0206
:101050004091E0025091E1020FD520EF35E849ECD4
:101060005CE35AD660938A0270938B0280938C0261
:1010700090938D0260918E0270918F028091900208
:101080009091910220E030EC4FE754E441D61816DD
:1010900064F480E090ECAFE7B4E480938E02909328
:1010A0008F02A0939002B093910260918E02709192
:1010B0008F02809190029091910220E030E0A9018E
:1010C00040D5882344F410928E0210928F02109221
:1010D00090021092910280918E0290918F02A091C5
:1010E0009002B09191028093860290938702A09320
:1010F0008802B09389028091960290919702A09104
:101100009802B09199028093DE029093DF02A0933F
:10111000E002B093E102609192027091930280919B
:1011200094029091950220918E0230918F0240910D
:10113000900250919102A1D420918A0230918B02A9
:1011400040918C0250918D0298D4609382027093EA
:101150008302809384029093850260918202709151
:101160008302809184029091850220E030E0A90101
:10117000E8D4882344F410928202109283021092E1
:1011800084021092850260918202709183028091A4
:1011900084029091850220E030EC4FE754E4B8D50A
:1011A000181664F480E090ECAFE7B4E48093820218
:1011B00090938302A0938402B0938502609182028F
:1011C000709183028091840290918502BED4CB01FC
:1011D00076DCFF90EF90DF90CF900895CF92DF9272
:1011E000EF92FF92C0900102D0900202E0900302C1
:1011F000F09004026091E6027091E702072E000C65
:10120000880B990BD5D49B01AC01C701B60134D42E
:1012100060937E0270937F0280938002909381029C
:1012200060917E0270917F02809180029091810294
:1012300028EB3EE145E850E46FD560937A02709365
:101240007B0280937C0290937D0260917E0270917C
:101250007F02809180029091810228EB3EE145E07F
:101260005EE35AD520916E0230916F024091700278
:101270005091710202D4609376027093770280934A
:1012800078029093790260917E0270917F02809142
:101290008002909181022091D8023091D902409130
:1012A000DA025091DB02E8D320EF35E849EC5CE349
:1012B00033D560937202709373028093740290939B
:1012C0007502609176027091770280917802909118
:1012D000790220E030EC4FE754E41AD5181664F494
:1012E00080E090ECAFE7B4E48093760290937702CD
:1012F000A0937802B09379026091760270917702A0
:10130000809178029091790220E030E0A90119D40F
:10131000882344F410927602109277021092780299
:10132000109279028091760290917702A0917802D2
:10133000B091790280936E0290936F02A093700235
:10134000B093710280917E0290917F02A091800201
:10135000B09181028093D8029093D902A093DA02CF
:10136000B093DB0260917A0270917B0280917C02E3
:1013700090917D022091760230917702409178021F
:10138000509179027AD32091720230917302409188
:1013900074025091750271D360936A0270936B026C
:1013A00080936C0290936D0260916A0270916B025F
:1013B00080916C0290916D0220E030E0A901C1D3D0
:1013C000882344F410926A0210926B0210926C020D
:1013D00010926D0260916A0270916B0280916C02B2
:1013E00090916D0220E030EC4FE754E491D4181650
:1013F00064F480E090ECAFE7B4E480936A029093E9
:101400006B02A0936C02B0936D0260916A027091BE
:101410006B0280916C0290916D0297D3CB0159DBE6
:10142000FF90EF90DF90CF9008951F920F920FB62C
:101430000F9211240BB60F922F933F934F935F930C
:101440006F937F938F939F93AF93BF93EF93FF938C
:101450004ADB76DC9CDDC2DE1092A5001092A4006F
:10146000FF91EF91BF91AF919F918F917F916F917C
:101470005F914F913F912F910F900BBE0F900FBE38
:101480000F901F9018951092200184E08093210105
:1014900080E1809301018FEF81B983E080BBFBDAAB
:1014A00000DB05DB08DB84EF91E009DB84EF91E0F2
:1014B0000BDB84EF91E00DDB84EF91E00FCB08951F
:1014C00083E28093A0008CE08093A10082E080936F
:1014D00072008DE790E09093A9008093A80080EFC0
:1014E000809369008FE080936A008CE38DBB7894D1
:1014F000089580E090E0AFE2B4E48093010290931D
:101500000202A0930302B093040286E582B96091BF
:10151000010270910202809103029091040215D39E
:10152000CB01DCDA6091010270910202809103022A
:10153000909104020AD3CB01C2DA6091010270914A
:1015400002028091030290910402FFD2CB01BCDA27
:101550006091010270910202809103029091040255
:10156000F4D2CB01B6CA089580E090E0AAEFB3E4CC
:101570008093010290930202A0930302B0930402AD
:1015800089E982B96091010270910202809103029F
:1015900090910402DAD2CB0192DA6091010270914B
:1015A00002028091030290910402CFD2CB018CDA27
:1015B00060910102709102028091030290910402F5
:1015C000C4D2CB0186DA609101027091020280914F
:1015D000030290910402B9D2CB0180CA089580E041
:1015E00090E0A8ECB3E48093010290930202A093F0
:1015F0000302B093040285E582B960910102709103
:10160000020280910302909104029FD2CB0157DA2B
:101610006091010270910202809103029091040294
:1016200094D2CB0151DA6091010270910202809153
:1016300003029091040289D2CB014BDA609101023E
:101640007091020280910302909104027ED2CB013C
:1016500045CA089580E090E0A8E4B3E480930102D5
:1016600090930202A0930302B093040285E582B92D
:101670006091010270910202809103029091040234
:1016800064D2CB011CDA6091010270910202809158
:1016900003029091040259D2CB0116DA6091010243
:1016A0007091020280910302909104024ED2CB010C
:1016B00010DA609101027091020280910302909110
:1016C000040243D2CB010ACA089580E090E0A8EC5E
:1016D000B3E48093010290930202A0930302B093BB
:1016E00004028AEA82B9609101027091020280913B
:1016F00003029091040229D2CB01E1D96091010249
:101700007091020280910302909104021ED2CB01DB
:10171000DBD96091010270910202809103029091E5
:10172000040213D2CB01D5D960910102709102025B
:10173000809103029091040208D2CB01CFC9089591
:1017400080E090E0A6E1B3E480930102909302026E
:10175000A0930302B09304028AEA82B96091010265
:10176000709102028091030290910402EED1CB01AC
:10177000A6D96091010270910202809103029091BA
:101780000402E3D1CB01A0D9609101027091020261
:101790008091030290910402D8D1CB019AD9609133
:1017A0000102709102028091030290910402CDD156
:1017B000CB0194C908951092010210920202109276
:1017C0000302109204026091010270910202809162
:1017D000030290910402B9D1CB0176D96091010244
:1017E000709102028091030290910402AED1CB016C
:1017F00070D9609101027091020280910302909170
:101800000402A3D1CB015BD9609101027091020265
:10181000809103029091040298D1CB015FC9089591
:101820008091CA029091CB02A091CC02B091CD02DE
:10183000892F9A2FAB2FBB27A7FDBA958093C500A0
:101840008091CA028093C40088E98093C10086E039
:101850008093C20008959091C00095FFFCCF8093C3
:10186000C60008950F931F93CF93DF938C01C0E0C0
:10187000D0E006C0F801EC0FFD1F8081ECDF21965F
:10188000F80101900020E9F73197E01BF10BCE172A
:10189000DF0780F3DF91CF911F910F9108952F9271
:1018A0003F924F925F926F927F928F929F92AF92F0
:1018B000BF92CF92DF92EF92FF920F931F93CF933D
:1018C000DF93CDB7DEB7C354D1090FB6F894DEBFAE
:1018D0000FBECDBF22962FAF229723963FAF2397FF
:1018E00024964FAF2497852E762E672E382E292EDC
:1018F000A0E07BD304F581E492E0B4DF22962FAD23
:10190000229723963FAD239724964FAD2497582DC9
:10191000672D762D832D922D21D322962FAF2297DE
:1019200023963FAF239724964FAF2497852E762E8C
:10193000672E382E292E22962FAD229723963FAD63
:10194000239724964FAD2497582D672D762D832D00
:10195000922DA0E04AD361F480E37DDF73C0E1E023
:10196000F0E0EC0FFD1FE80FF11D10828F5F01C04A
:1019700080E08032A0F30F2EFFE19F2EF02D42C0B9
:10198000492C512C0F2EFAE0AF2EF02DB12CC12C8A
:10199000D12CE12CF12C00E010E022962FAD229703
:1019A00023963FAD239724964FAD2497582D672D4E
:1019B000762D832D922D49D2E1E0F0E0EC0FFD1F52
:1019C000E40DF51D205D208322962FAD22972396EE
:1019D0003FAD239724964FAD2497582D672D762D34
:1019E000832D922D34D222962FAF229723963FAF8C
:1019F000239724964FAF2497852E762E672E382E68
:101A0000292E9A9422962FAD229723963FAD2397A5
:101A100024964FAD2497582D672D762D832D922D2A
:101A2000A0E0E3D209F0ACCF10E00AC0E1E0F0E0C2
:101A3000EC0FFD1FE10FF11D808181110CDF1F5F95
:101A40001032A0F3CD5BDF4F0FB6F894DEBF0FBEB0
:101A5000CDBFDF91CF911F910F91FF90EF90DF905D
:101A6000CF90BF90AF909F908F907F906F905F903E
:101A70004F903F902F9008955058BB27AA270ED023
:101A80000DC1FED030F003D120F031F49F3F11F4AE
:101A90001EF4F3C00EF4E095E7FBE9C0E92F0FD187
:101AA00080F3BA17620773078407950718F071F47B
:101AB0009EF527C10EF4E0950B2EBA2FA02D0B0139
:101AC000B90190010C01CA01A0011124FF27591B83
:101AD00099F0593F50F4503E68F11A16F040A22F89
:101AE000232F342F4427585FF3CF469537952795FA
:101AF000A795F0405395C9F77EF41F16BA0B620BF9
:101B0000730B840BBAF09150A1F0FF0FBB1F661F3F
:101B1000771F881FC2F70EC0BA0F621F731F841F82
:101B200048F4879577956795B795F7959E3F08F0A8
:101B3000B3CF9395880F08F09927EE0F9795879567
:101B4000089571D008F481E0089504D06894B1112B
:101B5000D9C00895BCD088F09F5790F0B92F99272D
:101B6000B751A0F0D1F0660F771F881F991F1AF0A8
:101B7000BA95C9F712C0B13081F0C3D0B1E0089571
:101B8000C0C0672F782F8827B85F39F0B93FCCF3F2
:101B9000869577956795B395D9F73EF4909580959E
:101BA000709561957F4F8F4F9F4F0895E89409C0BE
:101BB00097FB3EF490958095709561957F4F8F4F80
:101BC0009F4F9923A9F0F92F96E9BB279395F69596
:101BD000879577956795B795F111F8CFFAF4BB0F14
:101BE00011F460FF1BC06F5F7F4F8F4F9F4F16C078
:101BF000882311F096E911C0772321F09EE8872F02
:101C0000762F05C0662371F096E8862F70E060E0BD
:101C10002AF09A95660F771F881FDAF7880F969536
:101C2000879597F90895990F0008550FAA0BE0E8DA
:101C3000FEEF16161706E807F907C0F0121613068E
:101C4000E407F50798F0621B730B840B950B39F4CE
:101C50000A2661F0232B242B252B21F408950A2634
:101C600009F4A140A6958FEF811D811D089597F974
:101C70009F6780E870E060E008959FEF80EC089532
:101C800000240A941616170618060906089500245B
:101C90000A9412161306140605060895092E0394D5
:101CA000000C11F4882352F0BB0F40F4BF2B11F449
:101CB00060FF04C06F5F7F4F8F4F9F4F089557FDA8
:101CC0009058440F551F59F05F3F71F04795880FAA
:101CD00097FB991F61F09F3F79F087950895121641
:101CE00013061406551FF2CF4695F1DF08C01616ED
:101CF00017061806991FF1CF86957105610508949E
:101D00000895E894BB2766277727CB0197F90895B4
:101D10008ADF08F48FEF08950BD0C0CFB1DF28F031
:101D2000B6DF18F0952309F0A2CFA7CF1124EACF90
:101D3000C6DFA0F3959FD1F3950F50E0551F629F2A
:101D4000F001729FBB27F00DB11D639FAA27F00D14
:101D5000B11DAA1F649F6627B00DA11D661F829F3B
:101D60002227B00DA11D621F739FB00DA11D621F20
:101D7000839FA00D611D221F749F3327A00D611D3D
:101D8000231F849F600D211D822F762F6A2F11241F
:101D90009F5750408AF0E1F088234AF0EE0FFF1F72
:101DA000BB1F661F771F881F91505040A9F79E3FA9
:101DB000510570F05CCFA6CF5F3FECF3983EDCF3AB
:101DC000869577956795B795F795E7959F5FC1F7E6
:101DD000FE2B880F911D9695879597F90895A1E29E
:101DE0001A2EAA1BBB1BFD010DC0AA1FBB1FEE1F95
:101DF000FF1FA217B307E407F50720F0A21BB30BE0
:101E0000E40BF50B661F771F881F991F1A9469F75B
:101E100060957095809590959B01AC01BD01CF01B7
:101E20000895EE0FFF1F881F8BBF0790F691E02DDE
:101E30001994E7D0B7FF0895821B930B0895B7FF5D
:101E4000EFC0EED0821B930B0895689401C0E89414
:101E5000F92FF12B0AF027C0A0E0B0E0E1E3FFE0AA
:101E600093C0092E05941AF479D0112392F4F0E866
:101E70000F26FFEFE094F09400951095B094C09475
:101E8000D094A194BF0ACF0ADF0AEF0AFF0A0F0B12
:101E90001F0B13D007FC62D0CDB7DEB7ECE090C0CB
:101EA000689401C0E8948F929F92CF93DF9305D0FE
:101EB000DF91CF919F908F90089588249924F40109
:101EC000E401B0E49F93AA279A158B049C04ED05C6
:101ED000FE05CF05D007A10798F4AD2FDC2FCF2F3B
:101EE000FE2FE92D982C892E982F872F762F652F7E
:101EF000542F432F322F2227B85031F7BF9127C0DC
:101F00001B2EBF91BB27220F331F441F551F661F77
:101F1000771F881F991F881C991CEE1FFF1FCC1F5D
:101F2000DD1FAA1FBB1F8A149B04EC05FD05CE050F
:101F3000DF05A007B10748F08A189B08EC09FD09E6
:101F4000CE09DF09A00BB10B21601A94E1F62EF443
:101F50009401AF01BE01CD01000C0895609570950C
:101F60008095909530954095509521953F4F4F4FD6
:101F70005F4F6F4F7F4F8F4F9F4F08952F923F922C
:101F80004F925F926F927F928F929F92AF92BF9289
:101F9000CF92DF92EF92FF920F931F93CF93DF9335
:101FA000CDB7DEB7CA1BDB0B0FB6F894DEBF0FBE92
:101FB000CDBF19942A88398848885F846E847D84CF
:101FC0008C849B84AA84B984C884DF80EE80FD80E1
:101FD0000C811B81AA81B981CE0FD11D0FB6F89457
:101FE000DEBF0FBECDBFED0108950024A7FD009414
:101FF0002A173005400550056005700580059005DD
:102000000895A29FB001B39FC001A39F700D811DD1
:102010001124911DB29F700D811D1124911D0895F1
:10202000F0DFA59F900DB49F900DA49F800D911D92
:0820300011240895F894FFCF7C
:102038000F0000FA4331370A004369616F0A005301
:10204800746F700A00496E64696574726F0A004E95
:1020580065726F206665726D6174690A004E696504
:102068006E74650A0063726F63650A004E65726F6D
:06207800002D002E000007
:00000001FF
