S00C00006D61696E2E7372656373
S1130000A7C00000C5C00000C3C0000002C40000B7
S113001064C40000E1C4000043C50000B9C000008E
S1130020B7C00000B5C000000C941C0B4CC300000A
S1130030AFC00000ADC00000ABC00000A9C000000C
S1130040A7C00000A5C00000A3C00000A1C000001C
S11300509FC000009DC000009BC0000099C000002C
S113006097C0000095C0000093C0000091C000003C
S11300708FC000008DC000008BC0000089C000004C
S113008087C0000085C0000083C0000081C000005C
S11300907FC000007DC000007BC00000A2C0000043
S11300A077C0000075C000000C94780A71C000008D
S11300B06FC000006DC000006BC0000069C000008C
S11300C067C0000065C0000063C0000061C000009C
S11300D05FC000005DC000005BC0000059C00000AC
S11300E057C000006A02710283028A024503450375
S11300F045034503450345034503450345034503BC
S113010045034503450345034503450345034503AB
S1130110450345034503450345034503450345039B
S1130120450345034503450345034503450397023A
S113013090029E02C6024503450345034503450359
S11301404503EE02F502FC020B03450345031903C4
S113015011241FBECFEFD1E2DEBFCDBF00E00CBF44
S113016012E0A0E0B2E0E6EAFEE100E00BBF02C06C
S113017007900D92AC30B107D9F722E0ACE0B2E0C1
S113018001C01D92A03CB207E1F784D20C94510F38
S113019037CF86E08093680085E08BBB83E0809353
S11301A06D0084E080936C0078941092070182E0E3
S11301B08093040180930501089590930F02809326
S11301C00E0270930D0260930C020895F894880F48
S11301D08093BA0085EC8093BC0078940C94470B10
S11301E008951F920F920FB60F9211240BB60F921F
S11301F02F933F934F935F936F937F938F939F932B
S1130200AF93BF93EF93FF938091B900887F8038B9
S113021049F018F4882319F128C0883A71F0883B12
S1130220A9F023C08091BB00E0910E02F0910F026F
S1130230199585EC8093BC001BC0E0910C02F091F1
S11302400D02199585EC8093BC0012C0E0910C025C
S1130250F0910D02199585EC8093BC0009C0ECEB7C
S1130260F0E0108285EC808303C085EC8093BC00B1
S1130270FF91EF91BF91AF919F918F917F916F917A
S11302805F914F913F912F910F900BBE0F900FBE36
S11302900F901F90189590E090931D0280931C027C
S11302A0089580911C0290911D028093BB000895D3
S11302B082E081BB8FE39CE90197F1F700C0000065
S11302C011BA08958130910509F0B2C098D2909383
S11302D01B0280931A0280911A0290911B028F389C
S11302E0924061F080911C0290911D02C49731F0FC
S11302F08091180290911902029741F780911C0293
S113030090911D02C49739F08091180290911902BE
S1130310029709F071C080911C0290911D02C4974C
S113032009F047C00E94EE0A8FEF9DE222E281505D
S113033090402040E1F700C000000E94130B8FEFB3
S113034093EC29E0815090402040E1F700C0000088
S113035060E070E088E494E40E94FD0A8FEF9CEB77
S11303602FE1815090402040E1F700C000000E943E
S1130370130B8FEF93EC29E0815090402040E1F77C
S113038000C000000E94DF0A8FEF95EA2EE0815042
S113039090402040E1F700C000000E94130B8FEF53
S11303A099E628E1815090402040E1F700C0000028
S11303B016C00E94EE0A8FEF93EC29E08150904022
S11303C02040E1F700C000000E94130B8FEF99E674
S11303D028E1815090402040E1F700C0000068DF30
S11303E080E090E011D210921B0210921A02109237
S11303F019021092180208950E94EE0A8FE59AEEEF
S11304000197F1F700C000000E94130B9FEF29E64B
S113041088E1915020408040E1F700C0000048DFAF
S113042080E090E0F1D110921B0210921A0208951C
S113043082309105F9F460E070E08AEF93E40E9461
S1130440FD0A8FE59AEE0197F1F700C000000E94C3
S1130450130B9FEF29E688E1915020408040E1F79B
S113046000C0000080E090E0CFD110921B021092F7
S11304701A0208950397F1F460E070E08AEF93E4C0
S11304800E94080B8FE59AEE0197F1F700C0000077
S11304900E94130B9FEF29E688E191502040804091
S11304A0E1F700C0000080E090E0AED110921B02A2
S11304B010921A020895E0911C02F0911D023197E6
S11304C0E633F10508F0E1C08827EE58FF4F8F4F5F
S11304D00C94480E82E090E0F5DE80E090E094C158
S11304E008950E94DF0A81E090E0ECDE81E081BBA8
S11304F02FEF89E698E1215080409040E1F700C059
S1130500000011BA089583E090E0DCDE80E090E022
S11305107BC108950E94130B80E090E075C108959B
S113052060E070E088E494E40C94080B089560E0C3
S113053070E088E494E40C94FD0A089560E070E0AF
S11305408AEF93E40E94FD0A5AD18D3D95400CF444
S1130550A0C082E090E090931D0280931C028FE380
S11305609CE90197F1F700C0000084E090E09093CB
S11305701D0280931C029FEF29E688E191502040E0
S11305808040E1F700C0000093CE089560E070E081
S11305908AEF93E40E94080B32D18D3D95400CF410
S11305A078C082E090E090931D0280931C028FE358
S11305B09CE90197F1F700C0000084E090E090937B
S11305C01D0280931C029FEF29E688E19150204090
S11305D08040E1F700C000006BCE089560E070E059
S11305E08AE793E40C94080B089560E070E08AE7CE
S11305F093E40C94FD0A089560E070E08AE793E4C4
S1130600FCD78FE59AEE0197F1F700C000000E9435
S1130610130B4ECE089560E070E08AE793E4F8D7B8
S11306208FE59AEE0197F1F700C00000FCD740CEA9
S1130630089510921702109216021EC081E081BB29
S11306409FEF28EF85E1915020408040E1F700C002
S1130650000011BA9FEF28EF85E1915020408040BF
S1130660E1F700C0000080911602909117020196F4
S113067090931702809316028091160290911702AC
S11306800597E4F2F0D714CE0895CDD780E090E03A
S1130690BBC00895FCD780E199DD61E571E08BE48E
S11306A091E08BDD76DD72D751D783E080BB2FEFED
S11306B087EA91E6215080409040E1F700C00000B5
S11306C0F7DDF9DEFECF1F920F920FB60F921124C1
S11306D00BB60F922F933F938F939F93EF93FF93B8
S11306E0E6E0F1E090818091000289279081909367
S11306F0000220911402309115022F5F3F4F309376
S113070015022093140220911202309113022F5FDC
S11307103F4F309313022093120220911002309124
S113072011022F5F3F4F309311022093100280FF7C
S11307302DC020911002309111022130310551F465
S113074021E030E030931902209318029FEF909338
S113075000021CC020911402309115022130310591
S113076051F49FEF9093000222E030E0309319029D
S1130770209318020BC020911402309115022230EC
S1130780310524F0109215021092140281FF2AC040
S11307908091100290911102019751F48FEF809390
S11307A0000282E090E090931902809318021AC02C
S11307B08091120290911302019751F48FEF80936C
S11307C0000281E090E090931902809318020AC01D
S11307D08091120290911302029724F01092130256
S11307E010921202FF91EF919F918F913F912F915F
S11307F00F900BBE0F900FBE0F901F901895809115
S1130800220290912302089590932302809322025E
S113081008951F920F920FB60F9211240BB60F92E8
S11308202F933F934F935F936F937F938F939F93F4
S1130830AF93BF93EF93FF9380912401909125018F
S11308409093330280933202A0913202B09133022A
S11308508091300290913102A81BB90B20E432E45C
S11308604FE050E00E94560E24E234EF40E050E0A6
S11308700E94260E3093A7022093A602A091A602FE
S1130880B091A70228EE33E00E94500E9B01AC0108
S113089060E07AEC8AE99BE30E94260E3093B5026D
S11308A02093B402809132029091330290933102EA
S11308B080933002FF91EF91BF91AF919F918F91FF
S11308C07F916F915F914F913F912F910F900BBE4C
S11308D00F900FBE0F901F9018951F920F920FB696
S11308E00F9211240BB60F922F933F934F935F9364
S11308F06F937F938F939F93AF93BF93EF93FF93E4
S1130900809124019091250190932F0280932E02CF
S1130910A0912E02B0912F0280912C0290912D0271
S1130920A81BB90B20E432E44FE050E00E94560EBD
S113093024E234EF40E050E00E94260E3093BD02E2
S11309402093BC02A091BC02B091BD022CEC31E01A
S11309500E94500E9B01AC0160E07AEC8AE99BE3B3
S11309600E94260E3093A1022093A00280912E02B1
S113097090912F0290932D0280932C028091220259
S11309809091230201969093230280932202409136
S1130990220250912302952F990F990B242F352F62
S11309A0492F592F692F792F892FB0D685E092E0EE
S11309B090D6FF91EF91BF91AF919F918F917F91CD
S11309C06F915F914F913F912F910F900BBE0F90BC
S11309D00FBE0F901F9018951F920F920FB60F9293
S11309E011240BB60F922F933F934F935F936F9302
S11309F07F938F939F93AF93BF93EF93FF938091D4
S1130A0024019091250190932B0280932A02A091B6
S1130A102A02B0912B028091280290912902A81BEE
S1130A20B90B20E432E44FE050E00E94560E24E279
S1130A3034EF40E050E00E94260E30939D02209354
S1130A409C02A0919C02B0919D0226E732E00E9494
S1130A50500E9B01AC0160E07AEC8AE99BE30E94B2
S1130A60260E3093BB022093BA0280912A02909101
S1130A702B029093290280932802FF91EF91BF915A
S1130A80AF919F918F917F916F915F914F913F9122
S1130A902F910F900BBE0F900FBE0F901F901895C3
S1130AA01F920F920FB60F9211240BB60F922F9331
S1130AB03F934F935F936F937F938F939F93AF93E2
S1130AC0BF93EF93FF93809124019091250190931C
S1130AD0270280932602A0912602B09127028091DA
S1130AE0240290912502A81BB90B20E432E44FE0C4
S1130AF050E00E94560E24E234EF40E050E00E94A1
S1130B00260E3093B7022093B602A091B602B0919C
S1130B10B70220E832E00E94500E9B01AC0160E075
S1130B207AEC8AE99BE30E94260E3093B10220936B
S1130B30B00280912602909127029093250280931F
S1130B402402FF91EF91BF91AF919F918F917F917B
S1130B506F915F914F913F912F910F900BBE0F902A
S1130B600FBE0F901F9018958BEA8093800080EE43
S1130B7084B9089583E88093900088E08DB908953E
S1130B808CE08093810008958CE080939100089517
S1130B909093890080938800089590938B008093AC
S1130BA08A00089590938D0080938C00089590930B
S1130BB09900809398000895CF92DF92EF92FF926C
S1130BC0C0900102D0900202E0900302F09004026F
S1130BD06091B4027091B502072E000C880B990B3A
S1130BE01ED79B01AC01C701B6017DD6609390026C
S1130BF07093910280939202909393026091900279
S1130C007091910280919202909193022DEC3CECB0
S1130C104BE752E4B8D760938C0270938D028093B3
S1130C208E0290938F026091900270919102809154
S1130C309202909193022FE23FED4AE75AE3A3D741
S1130C40209180023091810240918202509183026E
S1130C504BD6609388027093890280938A029093A2
S1130C608B02609190027091910280919202909116
S1130C7093022091AC023091AD024091AE025091AA
S1130C80AF0231D62FE530E749E854E37CD76093CF
S1130C908402709385028093860290938702609108
S1130CA088027091890280918A0290918B0220E0DF
S1130CB030EC4FE754E463D7181664F480E090EC0A
S1130CC0AFE7B4E48093880290938902A0938A02E8
S1130CD0B0938B02609188027091890280918A029C
S1130CE090918B0220E030E0A90162D6882344F47D
S1130CF0109288021092890210928A0210928B023A
S1130D008091880290918902A0918A02B0918B020D
S1130D108093800290938102A0938202B093830215
S1130D208091900290919102A0919202B0919302CD
S1130D308093AC029093AD02A093AE02B093AF0245
S1130D4060918C0270918D0280918E0290918F023D
S1130D50209188023091890240918A0250918B023D
S1130D60C3D520918402309185024091860250912E
S1130D708702BAD560937C0270937D0280937E02D1
S1130D8090937F0260917C0270917D0280917E023B
S1130D9090917F0220E030E0A9010AD6882344F430
S1130DA010927C0210927D0210927E0210927F02B9
S1130DB060917C0270917D0280917E0290917F020D
S1130DC020E030EC4FE754E4DAD6181664F480E0FF
S1130DD090ECAFE7B4E480937C0290937D02A093FF
S1130DE07E02B0937F0260917C0270917D028091BB
S1130DF07E0290917F02E0D5CB01D9DEFF90EF9087
S1130E00DF90CF900895CF92DF92EF92FF92C0903F
S1130E100102D0900202E0900302F090040260917B
S1130E20A0027091A102072E000C880B990BF7D534
S1130E309B01AC01C701B60156D56093780270934B
S1130E40790280937A0290937B0260917802709188
S1130E50790280917A0290917B022DEC3CEC4BE775
S1130E6052E491D660937402709375028093760273
S1130E7090937702609178027091790280917A025E
S1130E8090917B022FE23FED4AE75AE37CD6209112
S1130E9068023091690240916A0250916B0224D534
S1130EA06093700270937102809372029093730244
S1130EB0609178027091790280917A0290917B021C
S1130EC0209198023091990240919A0250919B028C
S1130ED00AD52FE530E749E854E355D660936C0210
S1130EE070936D0280936E0290936F026091700212
S1130EF070917102809172029091730220E030EC43
S1130F004FE754E43CD6181664F480E090ECAFE765
S1130F10B4E48093700290937102A0937202B09330
S1130F2073026091700270917102809172029091CB
S1130F30730220E030E0A9013BD5882344F41092E9
S1130F4070021092710210927202109273028091D8
S1130F50700290917102A0917202B0917302809319
S1130F60680290936902A0936A02B0936B02809125
S1130F70780290917902A0917A02B0917B028093D9
S1130F80980290939902A0939A02B0939B02609165
S1130F90740270917502809176029091770220918B
S1130FA070023091710240917202509173029CD48C
S1130FB020916C0230916D0240916E0250916F024B
S1130FC093D4609364027093650280936602909355
S1130FD0670260916402709165028091660290914B
S1130FE0670220E030E0A901E3D4882344F410929E
S1130FF06402109265021092660210926702609178
S1131000640270916502809166029091670220E00B
S113101030EC4FE754E4B3D5181664F480E090EC58
S1131020AFE7B4E48093640290936502A0936602F0
S1131030B0936702609164027091650280916602C8
S113104090916702B9D4CB01A8DDFF90EF90DF90B7
S1131050CF900895CF92DF92EF92FF92C090010259
S1131060D0900202E0900302F09004026091BA0270
S11310707091BB02072E000C880B990BD0D49B01F6
S1131080AC01C701B6012FD4609360027093610272
S11310908093620290936302609160027091610296
S11310A080916202909163022DEC3CEC4BE752E498
S11310B06AD560935C0270935D0280935E029093A4
S11310C05F0260916002709161028091620290916E
S11310D063022FE23FED4AE75AE355D520915002CF
S11310E0309151024091520250915302FDD36093CA
S11310F058027093590280935A0290935B02609154
S11311006002709161028091620290916302209169
S1131110A8023091A9024091AA025091AB02E3D3F4
S11311202FE530E749E854E32ED5609354027093D9
S11311305502809356029093570260915802709121
S1131140590280915A0290915B0220E030EC4FE703
S113115054E415D5181664F480E090ECAFE7B4E4D9
S11311608093580290935902A0935A02B0935B0261
S1131170609158027091590280915A0290915B02D9
S113118020E030E0A90114D4882344F410925802DA
S11311901092590210925A0210925B0280915802E6
S11311A090915902A0915A02B0915B02809350022F
S11311B090935102A0935202B09353028091600223
S11311C090916102A0916202B09163028093A8029F
S11311D09093A902A093AA02B093AB0260915C021F
S11311E070915D0280915E0290915F02209158029D
S11311F03091590240915A0250915B0275D320916B
S113120054023091550240915602509157026CD3CA
S113121060934C0270934D0280934E0290934F0260
S113122060914C0270914D0280914E0290914F0258
S113123020E030E0A901BCD3882344F410924C028E
S113124010924D0210924E0210924F0260914C0285
S113125070914D0280914E0290914F0220E030EC4B
S11312604FE754E48CD4181664F480E090ECAFE7B4
S1131270B4E480934C0290934D02A0934E02B09339
S11312804F0260914C0270914D0280914E029091F8
S11312904F0292D3CB017CDCFF90EF90DF90CF9094
S11312A00895CF92DF92EF92FF92C0900102D09006
S11312B00202E0900302F09004026091B002709187
S11312C0B102072E000C880B990BA9D39B01AC012A
S11312D0C701B60108D36093480270934902809312
S11312E04A0290934B0260914802709149028091A6
S11312F04A0290914B022DEC3CEC4BE752E443D470
S1131300609344027093450280934602909347028F
S1131310609148027091490280914A0290914B0277
S11313202FE23FED4AE75AE32ED420913802309160
S1131330390240913A0250913B02D6D26093400266
S11313407093410280934202909343026091480259
S11313507091490280914A0290914B022091A2021D
S11313603091A3024091A4025091A502BCD22FE572
S113137030E749E854E307D460933C0270933D029C
S113138080933E0290933F0260914002709141022B
S1131390809142029091430220E030EC4FE754E404
S11313A0EED3181664F480E090ECAFE7B4E48093D5
S11313B0400290934102A0934202B0934302609191
S11313C0400270914102809142029091430220E0D8
S11313D030E0A901EDD2882344F410924002109227
S11313E04102109242021092430280914002909175
S11313F04102A0914202B09143028093380290933B
S11314003902A0933A02B0933B0280914802909132
S11314104902A0914A02B0914B028093A202909398
S1131420A302A093A402B093A50260914402709118
S113143045028091460290914702209140023091EA
S1131440410240914202509143024ED220913C020B
S113145030913D0240913E0250913F0245D260934B
S11314603402709335028093360290933702609170
S1131470340270913502809136029091370220E057
S113148030E0A90195D2882344F4109234021092DA
S11314903502109236021092370260913402709134
S11314A03502809136029091370220E030EC4FE70C
S11314B054E465D3181664F480E090ECAFE7B4E428
S11314C08093340290933502A0933602B09337028E
S11314D06091340270913502809136029091370206
S11314E06BD2CB015FDBFF90EF90DF90CF9008953C
S11314F01F920F920FB60F9211240BB60F922F93D7
S11315003F934F935F936F937F938F939F93AF9387
S1131510BF93EF93FF9350DB76DC9CDDC2DE109229
S1131520A5001092A400FF91EF91BF91AF919F91FC
S11315308F917F916F915F914F913F912F910F9078
S11315400BBE0F900FBE0F901F90189510922001A4
S113155084E08093210180E1809301018FEF81B9C0
S113156083E080BB80EC87B918B8FEDA03DB08DBC4
S11315700BDB84EF91E00CDB84EF91E00EDB84EF76
S113158091E010DB84EF91E012CB089583E2809325
S1131590A0008CE08093A10082E0809372008DE72C
S11315A090E09093A9008093A80080EF8093690055
S11315B08FE080936A008CE38DBB7894089580E07B
S11315C090E0A8E4B4E48093010290930202A09313
S11315D00302B093040286E982B9089580E090E0A2
S11315E0AAEFB3E48093010290930202A093030252
S11315F0B093040289E682B908956093010270935E
S11316000202809303029093040289E982B9089547
S11316106093010270930202809303029093040288
S113162086E682B908951092010210920202109285
S113163003021092040208951F920F920FB60F92A4
S113164011248F939F9380912002909121020196FF
S113165090932102809320029F918F910F900FBE4F
S11316600F901F90189580E488B980912002909182
S11316702102883B9B40C9F718B880911E029091C3
S11316801F02019690931F0280931E020895809179
S1131690940290919502A0919602B0919702892F9D
S11316A09A2FAB2FBB27A7FDBA958093C5008091D5
S11316B094028093C40088E98093C10086E08093FB
S11316C0C20008959091C00095FFFCCF8093C6009E
S11316D008950F931F93CF93DF938C01C0E0D0E064
S11316E006C0F801EC0FFD1F8081ECDF2196F801A4
S11316F001900020E9F73197E01BF10BCE17DF07CB
S113170080F3DF91CF911F910F9108952F923F9213
S11317104F925F926F927F928F929F92AF92BF92FD
S1131720CF92DF92EF92FF920F931F93CF93DF93A9
S1131730CDB7DEB7C354D1090FB6F894DEBF0FBEE0
S1131740CDBF22962FAF229723963FAF239724969F
S11317504FAF2497852E762E672E382E292EA0E0A3
S11317607BD304F587E092E0B4DF22962FAD229775
S113177023963FAD239724964FAD2497582D672D7C
S1131780762D832D922D21D322962FAF2297239647
S11317903FAF239724964FAF2497852E762E672E3E
S11317A0382E292E22962FAD229723963FAD2397CC
S11317B024964FAD2497582D672D762D832D922D89
S11317C0A0E04AD361F480E37DDF73C0E1E0F0E0A0
S11317D0EC0FFD1FE80FF11D10828F5F01C080E048
S11317E08032A0F30F2EFFE19F2EF02D42C0492C32
S11317F0512C0F2EFAE0AF2EF02DB12CC12CD12C90
S1131800E12CF12C00E010E022962FAD22972396D4
S11318103FAD239724964FAD2497582D672D762DF1
S1131820832D922D49D2E1E0F0E0EC0FFD1FE40D91
S1131830F51D205D208322962FAD229723963FAD80
S1131840239724964FAD2497582D672D762D832DFD
S1131850922D34D222962FAF229723963FAF23970F
S113186024964FAF2497852E762E672E382E292E58
S11318709A9422962FAD229723963FAD23972496D0
S11318804FAD2497582D672D762D832D922DA0E0F2
S1131890E3D209F0ACCF10E00AC0E1E0F0E0EC0FD5
S11318A0FD1FE10FF11D808181110CDF1F5F1032DC
S11318B0A0F3CD5BDF4F0FB6F894DEBF0FBECDBFF4
S11318C0DF91CF911F910F91FF90EF90DF90CF9018
S11318D0BF90AF909F908F907F906F905F904F904C
S11318E03F902F9008955058BB27AA270ED00DC1C2
S11318F0FED030F003D120F031F49F3F11F41EF4F8
S1131900F3C00EF4E095E7FBE9C0E92F0FD180F3B3
S1131910BA17620773078407950718F071F49EF5E8
S113192027C10EF4E0950B2EBA2FA02D0B01B9019F
S113193090010C01CA01A0011124FF27591B99F041
S1131940593F50F4503E68F11A16F040A22F232F4D
S1131950342F4427585FF3CF469537952795A7959D
S1131960F0405395C9F77EF41F16BA0B620B730B44
S1131970840BBAF09150A1F0FF0FBB1F661F771FB5
S1131980881FC2F70EC0BA0F621F731F841F48F46A
S1131990879577956795B795F7959E3F08F0B3CFF0
S11319A09395880F08F09927EE0F979587950895DA
S11319B071D008F481E0089504D06894B111D9C0BD
S11319C00895BCD088F09F5790F0B92F9927B7514C
S11319D0A0F0D1F0660F771F881F991F1AF0BA95EF
S11319E0C9F712C0B13081F0C3D0B1E00895C0C0CE
S11319F0672F782F8827B85F39F0B93FCCF38695E5
S1131A0077956795B395D9F73EF490958095709541
S1131A1061957F4F8F4F9F4F0895E89409C097FBBE
S1131A203EF490958095709561957F4F8F4F9F4FB1
S1131A309923A9F0F92F96E9BB279395F6958795F5
S1131A4077956795B795F111F8CFFAF4BB0F11F4B8
S1131A5060FF1BC06F5F7F4F8F4F9F4F16C088235F
S1131A6011F096E911C0772321F09EE8872F762F95
S1131A7005C0662371F096E8862F70E060E02AF0D6
S1131A809A95660F771F881FDAF7880F96958795C2
S1131A9097F90895990F0008550FAA0BE0E8FEEF97
S1131AA016161706E807F907C0F012161306E4071E
S1131AB0F50798F0621B730B840B950B39F40A2617
S1131AC061F0232B242B252B21F408950A2609F4F5
S1131AD0A140A6958FEF811D811D089597F99F67F9
S1131AE080E870E060E008959FEF80EC08950024A2
S1131AF00A941616170618060906089500240A946F
S1131B0012161306140605060895092E0394000CF4
S1131B1011F4882352F0BB0F40F4BF2B11F460FF83
S1131B2004C06F5F7F4F8F4F9F4F089557FD9058AC
S1131B30440F551F59F05F3F71F04795880F97FB8D
S1131B40991F61F09F3F79F0879508951216130647
S1131B501406551FF2CF4695F1DF08C01616170676
S1131B601806991FF1CF86957105610508940895AB
S1131B70E894BB2766277727CB0197F908958ADF76
S1131B8008F48FEF08950BD0C0CFB1DF28F0B6DF93
S1131B9018F0952309F0A2CFA7CF1124EACFC6DF0E
S1131BA0A0F3959FD1F3950F50E0551F629FF0016C
S1131BB0729FBB27F00DB11D639FAA27F00DB11DC5
S1131BC0AA1F649F6627B00DA11D661F829F22274E
S1131BD0B00DA11D621F739FB00DA11D621F839FD5
S1131BE0A00D611D221F749F3327A00D611D231FAB
S1131BF0849F600D211D822F762F6A2F11249F57F9
S1131C0050408AF0E1F088234AF0EE0FFF1FBB1F1B
S1131C10661F771F881F91505040A9F79E3F5105BA
S1131C2070F05CCFA6CF5F3FECF3983EDCF3869573
S1131C3077956795B795F795E7959F5FC1F7FE2B65
S1131C40880F911D9695879597F90895A1E21A2E0C
S1131C50AA1BBB1BFD010DC0AA1FBB1FEE1FFF1F4C
S1131C60A217B307E407F50720F0A21BB30BE40B9C
S1131C70F50B661F771F881F991F1A9469F76095E3
S1131C807095809590959B01AC01BD01CF0108959D
S1131C90EE0FFF1F881F8BBF0790F691E02D19945C
S1131CA0E7D0B7FF0895821B930B0895B7FFEFC0E9
S1131CB0EED0821B930B0895689401C0E894F92F29
S1131CC0F12B0AF027C0A0E0B0E0E8E6FEE093C004
S1131CD0092E05941AF479D0112392F4F0E80F2612
S1131CE0FFEFE094F09400951095B094C094D094D4
S1131CF0A194BF0ACF0ADF0AEF0AFF0A0F0B1F0BDA
S1131D0013D007FC62D0CDB7DEB7ECE090C0689486
S1131D1001C0E8948F929F92CF93DF9305D0DF9117
S1131D20CF919F908F90089588249924F401E40121
S1131D30B0E49F93AA279A158B049C04ED05FE0535
S1131D40CF05D007A10798F4AD2FDC2FCF2FFE2F9E
S1131D50E92D982C892E982F872F762F652F542FB5
S1131D60432F322F2227B85031F7BF9127C01B2EA3
S1131D70BF91BB27220F331F441F551F661F771FB8
S1131D80881F991F881C991CEE1FFF1FCC1FDD1F85
S1131D90AA1FBB1F8A149B04EC05FD05CE05DF05B5
S1131DA0A007B10748F08A189B08EC09FD09CE0981
S1131DB0DF09A00BB10B21601A94E1F62EF4940113
S1131DC0AF01BE01CD01000C08956095709580951A
S1131DD0909530954095509521953F4F4F4F5F4FCB
S1131DE06F4F7F4F8F4F9F4F08952F923F924F9287
S1131DF05F926F927F928F929F92AF92BF92CF9297
S1131E00DF92EF92FF920F931F93CF93DF93CDB79F
S1131E10DEB7CA1BDB0B0FB6F894DEBF0FBECDBF17
S1131E2019942A88398848885F846E847D848C84D8
S1131E309B84AA84B984C884DF80EE80FD800C81F1
S1131E401B81AA81B981CE0FD11D0FB6F894DEBFD4
S1131E500FBECDBFED0108950024A7FD00942A17FD
S1131E60300540055005600570058005900508950E
S1131E70A29FB001B39FC001A39F700D811D1124C7
S1131E80911DB29F700D811D1124911D0895F0DFE5
S1131E90A59F900DB49F900DA49F800D911D1124BA
S1091EA00895F894FFCF41
S10F1EA60F0000FA430A002D002E00007B
S9030000FC
