:100000009AC00000B8C00000B6C0000053C3000092
:10001000B5C3000017C4000082C40000ACC00000DB
:10002000AAC00000A8C00000A6C00000B0C0000028
:10003000A2C00000A0C000009EC000009CC0000044
:100040009AC0000098C0000096C0000094C0000054
:1000500092C0000090C000008EC000008CC0000064
:100060008AC0000088C0000086C0000084C0000074
:1000700082C0000080C000007EC000007CC0000084
:100080007AC0000078C0000076C0000074C0000094
:1000900072C0000070C000006EC0000084C100008B
:1000A0006AC0000068C000000C94B70964C000007A
:1000B00062C0000060C000005EC000005CC00000C4
:1000C0005AC0000058C0000056C0000054C00000D4
:1000D00052C0000050C000004EC000004CC00000E4
:1000E0004AC000000B03120320032A03390339031B
:1000F0003903390339033903390339033903390320
:10010000390339033903390339033903390339030F
:1001100039033903390339033903390339033903FF
:1001200039033903390339033903390339033203F6
:1001300030033403360311241FBECFEFD1E2DEBFFC
:10014000CDBF00E00CBF12E0A0E0B2E0EAEEFBE1C0
:1001500000E00BBF02C007900D92A231B107D9F7A2
:1001600022E0A2E1B2E001C01D92A03CB207E1F79B
:1001700086D20C94F30D44CF84E0809368008BBB4F
:1001800083E080936D0078941092070108951F9288
:100190000F920FB60F9211240BB60F922F933F932D
:1001A0004F935F936F937F938F939F93AF93BF937F
:1001B000CF93EF93FF93E6E0F1E0C08180910002DE
:1001C000C8278081809300028091160290911702C7
:1001D00001969093170280931602809114029091D9
:1001E00015020196909315028093140280911202D9
:1001F0009091130201969093130280931202C0FF14
:1002000054C080911202909113020197F9F40E9458
:100210007D0B2FEF83ED90E3215080409040E1F77C
:1002200000C000000E941B0A2FEF81EE94E02150D5
:1002300080409040E1F700C0000080E090E035D2BF
:100240000E947D0B8FEF809300022FC080911602D9
:10025000909117020197F9F40E947D0B2FEF83ED27
:1002600090E3215080409040E1F700C000000E94E0
:10027000560A2FEF81EE94E0215080409040E1F744
:1002800000C000000E947D0B80E090E00ED28FEF56
:10029000809300020AC08091160290911702029783
:1002A00024F01092170210921602C1FF54C08091E0
:1002B0001202909113020197F9F40E947D0B2FEF27
:1002C00083ED90E3215080409040E1F700C00000B2
:1002D0000E94560A2FEF81EE94E02150804090401A
:1002E000E1F700C000000E947D0B80E090E0DDD1CE
:1002F0008FEF809300022FC080911402909115021D
:100300000197F9F40E947D0B2FEF83ED90E32150CC
:1003100080409040E1F700C000000E941B0A2FEFD0
:1003200081EE94E0215080409040E1F700C0000051
:100330000E947D0B80E090E0B8D18FEF80930002A7
:100340000AC08091140290911502029724F0109235
:10035000150210921402FF91EF91CF91BF91AF91CE
:100360009F918F917F916F915F914F913F912F91CD
:100370000F900BBE0F900FBE0F901F90189590938B
:100380001B0280931A027093190260931802089559
:10039000F894880F8093BA0085EC8093BC00789421
:1003A0000C94B20B08951F920F920FB60F92112466
:1003B0000BB60F922F933F934F935F936F937F935F
:1003C0008F939F93AF93BF93EF93FF938091B90067
:1003D000887F803849F018F4882319F128C0883ABA
:1003E00071F0883BA9F023C08091BB00E0911A0214
:1003F000F0911B02199585EC8093BC001BC0E09125
:100400001802F0911902199585EC8093BC0012C076
:10041000E0911802F0911902199585EC8093BC00C7
:1004200009C0ECEBF0E0108285EC808303C085EC22
:100430008093BC00FF91EF91BF91AF919F918F91FD
:100440007F916F915F914F913F912F910F900BBED4
:100450000F900FBE0F901F90189590E0909321027F
:100460008093200208958091200290912102809330
:10047000BB0008958091200290912102C69701F55A
:1004800085E092E00E94D40B80E090E016C021E06D
:1004900021BB2FEF38EF45E1215030404040E1F7DC
:1004A00000C0000011BA2FEF38EF45E12150304075
:1004B0004040E1F700C000000196853091053CF313
:1004C000089582E081BB8FE39CE90197F1F700C0BA
:1004D000000011BA08958130910509F052C0E0D0B2
:1004E00090931D0280931C0280911C0290911D022A
:1004F0008431954031F08091200290912102C4977F
:1005000071F78091200290912102C497F9F4CED71F
:100510008FE59AEE0197F1F700C000000E947D0B75
:100520009FEF25EA8EE0915020408040E1F700C027
:100530000000C7DF80E090E0B8D010921D0210925A
:100540001C028CE092E00C94D40B0895AFD78FE599
:100550009AEE0197F1F700C000000E947D0B9FEF1B
:1005600025EA8EE0915020408040E1F700C0000075
:10057000A8DF80E090E099D010921D0210921C023A
:10058000089582309105D9F4CCD78FE59AEE019782
:10059000F1F700C000000E947D0B9FEF25EA8EE07E
:1005A000915020408040E1F700C000008ADF80E0E9
:1005B00090E07BD010921D0210921C0208950397C8
:1005C000D9F40E94420B8FE59AEE0197F1F700C033
:1005D00000000E947D0B9FEF25EA8EE091502040A5
:1005E0008040E1F700C000006CDF80E090E05DD06B
:1005F00010921D0210921C020895E0912002F091C9
:1006000021023197E932F105A0F58827EE58FF4F16
:100610008F4F0C94C60D82E090E05DDF80E090E0AB
:1006200044C0089508D781E090E055DF2FEF89E6B8
:1006300098E1215080409040E1F700C0000008950B
:1006400083E090E048DF84E090E090931F02809385
:100650001E0208950E947D0B80E090E026C0089560
:10066000D6C708955EC7089597C708950C94420BA6
:1006700008950E947D0B80E090E017C008950E94CD
:10068000B20B80E185DE63E372E08DE292E077DE1B
:10069000B9D69BD671DD83E080BBAFDFEBDEFDCF4B
:1006A00080912202909123020895909323028093D7
:1006B000220208951F920F920FB60F9211240BB6CB
:1006C0000F922F933F934F935F936F937F938F93EB
:1006D0009F93AF93BF93EF93FF93809124019091E9
:1006E00025019093330280933202A0913202B0919F
:1006F00033028091300290913102A81BB90B20E4A3
:1007000032E44FE050E00E94D40D24E234EF40E0A8
:1007100050E00E94A40D3093A7022093A602A0915E
:10072000A602B091A7022CE632E00E94CE0D9B01FA
:10073000AC0160E07AEC8AE99BE30E94A40D30935F
:10074000B5022093B40280913202909133029093CB
:10075000310280933002FF91EF91BF91AF919F9151
:100760008F917F916F915F914F913F912F910F905A
:100770000BBE0F900FBE0F901F9018951F920F92F7
:100780000FB60F9211240BB60F922F933F934F93F6
:100790005F936F937F938F939F93AF93BF93EF93E9
:1007A000FF93809124019091250190932F028093D3
:1007B0002E02A0912E02B0912F0280912C029091D6
:1007C0002D02A81BB90B20E432E44FE050E00E9458
:1007D000D40D24E234EF40E050E00E94A40D3093A9
:1007E000BD022093BC02A091BC02B091BD022EEDCF
:1007F00033E00E94CE0D9B01AC0160E07AEC8AE907
:100800009BE30E94A40D3093A1022093A00280914B
:100810002E0290912F0290932D0280932C02FF9133
:10082000EF91BF91AF919F918F917F916F915F9168
:100830004F913F912F910F900BBE0F900FBE0F90D5
:100840001F9018951F920F920FB60F9211240BB69E
:100850000F922F933F934F935F936F937F938F9359
:100860009F93AF93BF93EF93FF9380912401909157
:10087000250190932B0280932A02A0912A02B09125
:100880002B028091280290912902A81BB90B20E429
:1008900032E44FE050E00E94D40D24E234EF40E017
:1008A00050E00E94A40D30939D0220939C02A091E1
:1008B0009C02B0919D022EED33E00E94CE0D9B0173
:1008C000AC0160E07AEC8AE99BE30E94A40D3093CE
:1008D000BB022093BA0280912A0290912B0290933E
:1008E000290280932802809122029091230201968E
:1008F0009093230280932202FF91EF91BF91AF91D9
:100900009F918F917F916F915F914F913F912F9127
:100910000F900BBE0F900FBE0F901F9018951F9257
:100920000F920FB60F9211240BB60F922F933F9395
:100930004F935F936F937F938F939F93AF93BF93E7
:10094000EF93FF93809124019091250190932702CA
:1009500080932602A0912602B09127028091240262
:1009600090912502A81BB90B20E432E44FE050E03F
:100970000E94D40D24E234EF40E050E00E94A40D28
:100980003093B7022093B602A091B602B091B7029D
:100990002EED33E00E94CE0D9B01AC0160E07AECBD
:1009A0008AE99BE30E94A40D3093B1022093B00228
:1009B0008091260290912702909325028093240231
:1009C000FF91EF91BF91AF919F918F917F916F9127
:1009D0005F914F913F912F910F900BBE0F900FBEE3
:1009E0000F901F9018958BEA8093800080EE84B959
:1009F000089583E88093900088E08DB908958CE095
:100A00008093810008958CE08093910008959093E5
:100A1000890080938800089590938B0080938A00CA
:100A2000089590938D0080938C0008959093990081
:100A3000809398000895CF92DF92EF92FF92C0903A
:100A40000102D0900202E0900302F0900402609153
:100A5000B4027091B502072E000C880B990B5DD77C
:100A60009B01AC01C701B601BCD6609390027093A4
:100A70009102809392029093930260919002709100
:100A80009102809192029091930221E73DE342E826
:100A900050E4F7D760938C0270938D0280938E029E
:100AA00090938F02609190027091910280919202D6
:100AB000909193022FE832EC45EF5DE3E2D720916D
:100AC00080023091810240918202509183028AD645
:100AD000609388027093890280938A0290938B02BC
:100AE0006091900270919102809192029091930294
:100AF0002091AC023091AD024091AE025091AF0214
:100B000070D623EE35EA4BE95CE3BBD760938402F1
:100B10007093850280938602909387026091880289
:100B20007091890280918A0290918B0220E030ECD2
:100B30004FE754E4A2D7181664F480E090ECAFE7D6
:100B4000B4E48093880290938902A0938A02B093C0
:100B50008B02609188027091890280918A02909143
:100B60008B0220E030E0A901A1D6882344F4109242
:100B700088021092890210928A0210928B02809150
:100B8000880290918902A0918A02B0918B02809391
:100B9000800290938102A0938202B093830280919D
:100BA000900290919102A0919202B0919302809351
:100BB000AC029093AD02A093AE02B093AF026091ED
:100BC0008C0270918D0280918E0290918F02209103
:100BD00088023091890240918A0250918B0202D69C
:100BE00020918402309185024091860250918702C3
:100BF000F9D560937C0270937D0280937E0290937E
:100C00007F0260917C0270917D0280917E029091C2
:100C10007F0220E030E0A90149D6882344F41092F5
:100C20007C0210927D0210927E0210927F026091EF
:100C30007C0270917D0280917E0290917F0220E083
:100C400030EC4FE754E419D7181664F480E090ECC8
:100C5000AFE7B4E480937C0290937D02A0937E0280
:100C6000B0937F0260917C0270917D0280917E0240
:100C700090917F021FD6CB01D9DEFF90EF90DF90DD
:100C8000CF900895CF92DF92EF92FF92C090010231
:100C9000D0900202E0900302F09004026091A00262
:100CA0007091A102072E000C880B990B36D69B0180
:100CB000AC01C701B60195D56093780270937902B3
:100CC00080937A0290937B0260917802709179020E
:100CD00080917A0290917B0221E73DE342E850E463
:100CE000D0D66093740270937502809376029093CD
:100CF0007702609178027091790280917A029091E6
:100D00007B022FE832EC45EF5DE3BBD62091680211
:100D10003091690240916A0250916B0263D56093F1
:100D200070027093710280937202909373026091CB
:100D300078027091790280917A0290917B022091E1
:100D400098023091990240919A0250919B0249D5A4
:100D500023EE35EA4BE95CE394D660936C02709322
:100D60006D0280936E0290936F0260917002709199
:100D70007102809172029091730220E030EC4FE793
:100D800054E47BD6181664F480E090ECAFE7B4E44A
:100D90008093700290937102A0937202B0937302D9
:100DA0006091700270917102809172029091730251
:100DB00020E030E0A9017AD5882344F41092700233
:100DC000109271021092720210927302809170025E
:100DD00090917102A0917202B091730280936802A7
:100DE00090936902A0936A02B0936B02809178029B
:100DF00090917902A0917A02B0917B02809398023F
:100E000090939902A0939A02B0939B02609174020E
:100E10007091750280917602909177022091700214
:100E2000309171024091720250917302DBD4209193
:100E30006C0230916D0240916E0250916F02D2D4DB
:100E400060936402709365028093660290936702D8
:100E500060916402709165028091660290916702D0
:100E600020E030E0A90122D5882344F410926402E6
:100E700010926502109266021092670260916402FD
:100E800070916502809166029091670220E030ECDB
:100E90004FE754E4F2D5181664F480E090ECAFE725
:100EA000B4E48093640290936502A0936602B093C9
:100EB0006702609164027091650280916602909170
:100EC0006702F8D4CB01A8DDFF90EF90DF90CF90C0
:100ED0000895CF92DF92EF92FF92C0900102D090DE
:100EE0000202E0900302F09004026091BA02709155
:100EF000BB02072E000C880B990B0FD59B01AC0190
:100F0000C701B6016ED46093600270936102809352
:100F1000620290936302609160027091610280911D
:100F200062029091630221E73DE342E850E4A9D5D3
:100F300060935C0270935D0280935E0290935F0207
:100F400060916002709161028091620290916302EF
:100F50002FE832EC45EF5DE394D5209150023091BB
:100F6000510240915202509153023CD46093580276
:100F70007093590280935A0290935B0260916002D1
:100F80007091610280916202909163022091A802A7
:100F90003091A9024091AA025091AB0222D423EED3
:100FA00035EA4BE95CE36DD56093540270935502CA
:100FB00080935602909357026091580270915902A3
:100FC00080915A0290915B0220E030EC4FE754E4AC
:100FD00054D5181664F480E090ECAFE7B4E4809345
:100FE000580290935902A0935A02B0935B02609109
:100FF00058027091590280915A0290915B0220E050
:1010000030E0A90153D4882344F41092580210927E
:10101000590210925A0210925B02809158029091EC
:101020005902A0915A02B0915B02809350029093B2
:101030005102A0935202B0935302809160029091AA
:101040006102A0916202B09163028093A802909322
:10105000A902A093AA02B093AB0260915C027091C6
:101060005D0280915E0290915F0220915802309162
:10107000590240915A0250915B02B4D3209154021C
:10108000309155024091560250915702ABD3609374
:101090004C0270934D0280934E0290934F026091E8
:1010A0004C0270914D0280914E0290914F0220E0CF
:1010B00030E0A901FBD3882344F410924C02109233
:1010C0004D0210924E0210924F0260914C027091AC
:1010D0004D0280914E0290914F0220E030EC4FE79C
:1010E00054E4CBD4181664F480E090ECAFE7B4E499
:1010F00080934C0290934D02A0934E02B0934F0206
:1011000060914C0270914D0280914E0290914F027D
:10111000D1D3CB017CDCFF90EF90DF90CF9008958E
:10112000CF92DF92EF92FF92C0900102D090020224
:10113000E0900302F09004026091B0027091B1025D
:10114000072E000C880B990BE8D39B01AC01C7015B
:10115000B60147D3609348027093490280934A02D4
:1011600090934B02609148027091490280914A022B
:1011700090914B0221E73DE342E850E482D4609332
:101180004402709345028093460290934702609117
:1011900048027091490280914A0290914B022FE8D7
:1011A00032EC45EF5DE36DD4209138023091390285
:1011B00040913A0250913B0215D3609340027093E4
:1011C00041028093420290934302609148027091E1
:1011D000490280914A0290914B022091A2023091E3
:1011E000A3024091A4025091A502FBD223EE35EA5E
:1011F0004BE95CE346D460933C0270933D028093DC
:101200003E0290933F0260914002709141028091B2
:1012100042029091430220E030EC4FE754E42DD499
:10122000181664F480E090ECAFE7B4E480934002D9
:1012300090934102A0934202B09343026091400216
:1012400070914102809142029091430220E030E08F
:10125000A9012CD3882344F4109240021092410239
:1012600010924202109243028091400290914102FA
:10127000A0914202B09143028093380290933902C8
:10128000A0933A02B0933B028091480290914902A8
:10129000A0914A02B0914B028093A2029093A302C4
:1012A000A093A402B093A5026091440270914502FC
:1012B0008091460290914702209140023091410274
:1012C00040914202509143028DD220913C023091D4
:1012D0003D0240913E0250913F0284D2609334021D
:1012E00070933502809336029093370260913402F6
:1012F00070913502809136029091370220E030E003
:10130000A901D4D2882344F41092340210923502F9
:1013100010923602109237026091340270913502B9
:10132000809136029091370220E030EC4FE754E490
:10133000A4D3181664F480E090ECAFE7B4E4809393
:10134000340290933502A0933602B0933702609135
:101350003402709135028091360290913702AAD200
:10136000CB015FDBFF90EF90DF90CF9008951F924D
:101370000F920FB60F9211240BB60F922F933F933B
:101380004F935F936F937F938F939F93AF93BF938D
:10139000EF93FF9350DB76DC9CDDC2DE1092A5005C
:1013A0001092A400FF91EF91BF91AF919F918F9107
:1013B0007F916F915F914F913F912F910F900BBE55
:1013C0000F900FBE0F901F9018951092200184E08F
:1013D0008093210180E1809301018FEF81B983E047
:1013E00080BB01DB06DB0BDB0EDB84EF91E00FDB68
:1013F00084EF91E011DB84EF91E013DB84EF91E067
:1014000015CB089583E28093A0008CE08093A10027
:1014100082E0809372008DE790E09093A900809322
:10142000A80080EF809369008FE080936A008CE3CE
:101430008DBB7894089580E090E0AFE2B4E48093AF
:10144000010290930202A0930302B093040286E586
:1014500082B9609101027091020280910302909121
:10146000040228D2CB01E2DA6091010270910202FB
:1014700080910302909104021DD2CB01C8DA6091E1
:10148000010270910202809103029091040212D233
:10149000CB01C2DA609101027091020280910302D5
:1014A0009091040207D2CB01BCCA089580E090E07D
:1014B000AAEFB3E48093010290930202A093030287
:1014C000B093040289EA82B960910102709102022C
:1014D0008091030290910402EDD1CB0198DA6091E2
:1014E0000102709102028091030290910402E2D104
:1014F000CB0192DA609101027091020280910302A5
:1015000090910402D7D1CB018CDA609101027091E5
:1015100002028091030290910402CCD1CB0186CAD1
:10152000089580E090E0A8ECB3E4809301029093EA
:101530000202A0930302B093040289E582B960918C
:101540000102709102028091030290910402B2D1D3
:10155000CB015DDA60910102709102028091030279
:1015600090910402A7D1CB0157DA609101027091EA
:10157000020280910302909104029CD1CB0151DAC6
:101580006091010270910202809103029091040225
:1015900091D1CB014BCA089580E090E0A8E4B3E478
:1015A0008093010290930202A0930302B09304027D
:1015B00089E582B960910102709102028091030273
:1015C0009091040277D1CB0122DA609101027091EF
:1015D000020280910302909104026CD1CB011CDACB
:1015E00060910102709102028091030290910402C5
:1015F00061D1CB0116DA60910102709102028091F3
:1016000003029091040256D1CB0110CA089580E0E4
:1016100090E0A8ECB3E48093010290930202A093BF
:101620000302B093040286EA82B9609101027091CC
:10163000020280910302909104023CD1CB01E7D9D0
:101640006091010270910202809103029091040264
:1016500031D1CB01E1D960910102709102028091F8
:1016600003029091040226D1CB01DBD960910102E3
:101670007091020280910302909104021BD1CB0170
:10168000D5C9089580E090E0A6E1B3E4809301021B
:1016900090930202A0930302B093040286EA82B9F7
:1016A0006091010270910202809103029091040204
:1016B00001D1CB01ACD960910102709102028091FD
:1016C000030290910402F6D0CB01A6D960910102E9
:1016D000709102028091030290910402EBD0CB0141
:1016E000A0D9609101027091020280910302909151
:1016F0000402E0D0CB019AC9089510920102109221
:101700000202109203021092040260910102709191
:1017100002028091030290910402CCD0CB017CD9CB
:101720006091010270910202809103029091040283
:10173000C1D0CB0176D960910102709102028091F3
:10174000030290910402B6D0CB0161D960910102ED
:10175000709102028091030290910402ABD0CB0100
:1017600065C908958091940290919502A091960286
:10177000B0919702892F9A2FAB2FBB27A7FDBA955F
:101780008093C500809194028093C40088E980937F
:10179000C10086E08093C20008959091C00095FF3B
:1017A000FCCF8093C60008950F931F93CF93DF93D0
:1017B0008C01C0E0D0E006C0F801EC0FFD1F808175
:1017C000ECDF2196F80101900020E9F73197E01B4A
:1017D000F10BCE17DF0780F3DF91CF911F910F91AF
:1017E00008955058BB27AA270ED00DC1FED030F067
:1017F00003D120F031F49F3F11F41EF4F3C00EF436
:10180000E095E7FBE9C0E92F0FD180F3BA17620733
:1018100073078407950718F071F49EF527C10EF43D
:10182000E0950B2EBA2FA02D0B01B90190010C01F0
:10183000CA01A0011124FF27591B99F0593F50F408
:10184000503E68F11A16F040A22F232F342F442760
:10185000585FF3CF469537952795A795F040539558
:10186000C9F77EF41F16BA0B620B730B840BBAF028
:101870009150A1F0FF0FBB1F661F771F881FC2F793
:101880000EC0BA0F621F731F841F48F487957795A7
:101890006795B795F7959E3F08F0B3CF9395880F5E
:1018A00008F09927EE0F97958795089571D008F461
:1018B00081E0089504D06894B111D9C00895BCD0D6
:1018C00088F09F5790F0B92F9927B751A0F0D1F029
:1018D000660F771F881F991F1AF0BA95C9F712C0B3
:1018E000B13081F0C3D0B1E00895C0C0672F782F28
:1018F0008827B85F39F0B93FCCF38695779567951F
:10190000B395D9F73EF490958095709561957F4F8A
:101910008F4F9F4F0895E89409C097FB3EF4909530
:101920008095709561957F4F8F4F9F4F9923A9F0B8
:10193000F92F96E9BB279395F69587957795679547
:10194000B795F111F8CFFAF4BB0F11F460FF1BC08B
:101950006F5F7F4F8F4F9F4F16C0882311F096E91E
:1019600011C0772321F09EE8872F762F05C06623CC
:1019700071F096E8862F70E060E02AF09A95660F85
:10198000771F881FDAF7880F9695879597F908953E
:10199000990F0008550FAA0BE0E8FEEF1616170680
:1019A000E807F907C0F012161306E407F50798F0E8
:1019B000621B730B840B950B39F40A2661F0232B01
:1019C000242B252B21F408950A2609F4A140A6957D
:1019D0008FEF811D811D089597F99F6780E870E062
:1019E00060E008959FEF80EC089500240A94161695
:1019F000170618060906089500240A9412161306FD
:101A0000140605060895092E0394000C11F488238A
:101A100052F0BB0F40F4BF2B11F460FF04C06F5FA6
:101A20007F4F8F4F9F4F089557FD9058440F551F7C
:101A300059F05F3F71F04795880F97FB991F61F050
:101A40009F3F79F087950895121613061406551FC7
:101A5000F2CF4695F1DF08C0161617061806991F33
:101A6000F1CF86957105610508940895E894BB2728
:101A700066277727CB0197F908958ADF08F48FEF5F
:101A800008950BD0C0CFB1DF28F0B6DF18F0952352
:101A900009F0A2CFA7CF1124EACFC6DFA0F3959F0C
:101AA000D1F3950F50E0551F629FF001729FBB2745
:101AB000F00DB11D639FAA27F00DB11DAA1F649FF1
:101AC0006627B00DA11D661F829F2227B00DA11DA4
:101AD000621F739FB00DA11D621F839FA00D611D2A
:101AE000221F749F3327A00D611D231F849F600D4B
:101AF000211D822F762F6A2F11249F5750408AF084
:101B0000E1F088234AF0EE0FFF1FBB1F661F771F0F
:101B1000881F91505040A9F79E3F510570F05CCF4F
:101B2000A6CF5F3FECF3983EDCF3869577956795FB
:101B3000B795F795E7959F5FC1F7FE2B880F911D2D
:101B40009695879597F90895A1E21A2EAA1BBB1BBB
:101B5000FD010DC0AA1FBB1FEE1FFF1FA217B30779
:101B6000E407F50720F0A21BB30BE40BF50B661F8F
:101B7000771F881F991F1A9469F760957095809553
:101B800090959B01AC01BD01CF010895EE0FFF1FA1
:101B9000881F8BBF0790F691E02D19940BD0B7FFEB
:101BA0000895821B930B0895B7FF13C012D0821BB8
:101BB000930B0895A29FB001B39FC001A39F700D26
:101BC000811D1124911DB29F700D811D1124911D45
:101BD0000895F0DFA59F900DB49F900DA49F800DF8
:0A1BE000911D11240895F894FFCF21
:101BEA000F0000FA4363726F63650A004E65726FF5
:021BFA000000E9
:00000001FF
