S00C00006D61696E2E7372656373
S113000071C000008FC000008DC0000062C10000FC
S1130010C4C1000026C2000088C2000083C00000E2
S113002081C000007FC000007DC000007BC00000D4
S113003079C0000077C0000075C0000073C00000E4
S113004071C000006FC000006DC000006BC00000F4
S113005069C0000067C0000065C0000063C0000004
S113006061C000005FC000005DC000005BC0000014
S113007059C0000057C0000055C0000053C0000024
S113008051C000004FC000004DC000004BC0000034
S113009049C0000047C0000045C000009AC00000ED
S11300A041C000003FC0000063C700003BC0000027
S11300B039C0000037C0000035C0000033C0000064
S11300C031C000002FC000002DC000002BC0000074
S11300D029C0000027C0000025C0000023C0000084
S11300E021C0000011241FBECFEFD1E2DEBFCDBF7F
S11300F000E00CBF12E0A0E0B2E0EEE2F6E100E0C6
S11301000BBF02C007900D92A430B107D9F722E0CB
S1130110A4E0B2E001C01D92A63AB207E1F7C0D054
S11301200C94150B6DCF8032910549F134F4813074
S1130130910549F0029751F038C086329105E9F0F3
S11301408797C9F032C00C94AD08089575D72FEF86
S11301508FE097E2215080409040E1F700C000001A
S1130160FCD72FEF83ED90E3215080409040E1F7DE
S113017000C000000895B6C7089579C708952FEF09
S113018087E893E1215080409040E1F700C00000EF
S1130190E4D72FEF83ED90E3215080409040E1F7C6
S11301A000C000000C94F0080895D7C708959093F8
S11301B00702809306027093050260930402089577
S11301C0F894880F8093BA0085EC8093BC007894EF
S11301D008951F920F920FB60F9211240BB60F922F
S11301E02F933F934F935F936F937F938F939F933B
S11301F0AF93BF93EF93FF938091B900887F8038CA
S113020049F018F4882319F128C0883A71F0883B22
S1130210A9F023C08091BB00E0910602F09107028F
S1130220199585EC8093BC001BC0E0910402F09109
S11302300502199585EC8093BC0012C0E09104027C
S1130240F0910502199585EC8093BC0009C0ECEB94
S1130250F0E0108285EC808303C085EC8093BC00C1
S1130260FF91EF91BF91AF919F918F917F916F918A
S11302705F914F913F912F910F900BBE0F900FBE46
S11302800F901F90189590E09093090280930802B4
S1130290089580910802909109028093BB0008950B
S11302A0AFD780E18DDF69E471E083E491E07FDF23
S11302B02FEF8BE792E9215080409040E1F700C096
S11302C00000A1D683D680910802909109022BDF09
S11302D0FACF1F920F920FB60F9211240BB60F9202
S11302E02F933F934F935F936F937F938F939F933A
S11302F0AF93BF93EF93FF938091240190912501D5
S11303009093190280931802A0911802B0911902D7
S11303108091160290911702A81BB90B20E432E4D5
S11303204FE050E00E94F60A24E234EF40E050E04F
S11303300E94CE0A30938D0220938C02A0918C02ED
S1130340B0918D022EED33E00E94F00A9B01AC01C6
S113035060E07AEC8AE99BE30E94CE0A30939B0228
S113036020939A0280911802909119029093170297
S113037080931602FF91EF91BF91AF919F918F915E
S11303807F916F915F914F913F912F910F900BBE91
S11303900F900FBE0F901F9018951F920F920FB6DB
S11303A00F9211240BB60F922F933F934F935F93A9
S11303B06F937F938F939F93AF93BF93EF93FF9329
S11303C08091240190912501909315028093140249
S11303D0A0911402B091150280911202909113021F
S11303E0A81BB90B20E432E44FE050E00E94F60A67
S11303F024E234EF40E050E00E94CE0A3093A3029E
S11304002093A202A091A202B091A3022CE632E0B2
S11304100E94F00A9B01AC0160E07AEC8AE99BE35C
S11304200E94CE0A309387022093860280911402A0
S1130430909115029093130280931202FF91EF9111
S1130440BF91AF919F918F917F916F915F914F91E8
S11304503F912F910F900BBE0F900FBE0F901F90E6
S113046018951F920F920FB60F9211240BB60F928C
S11304702F933F934F935F936F937F938F939F93A8
S1130480AF93BF93EF93FF93809124019091250143
S11304909093110280931002A0911002B091110266
S11304A080910E0290910F02A81BB90B20E432E454
S11304B04FE050E00E94F60A24E234EF40E050E0BE
S11304C00E94CE0A3093830220938202A09182027A
S11304D0B09183022EED33E00E94F00A9B01AC013F
S11304E060E07AEC8AE99BE30E94CE0A3093A10291
S11304F02093A002809110029091110290930F0218
S113050080930E02FF91EF91BF91AF919F918F91D4
S11305107F916F915F914F913F912F910F900BBEFF
S11305200F900FBE0F901F9018951F920F920FB649
S11305300F9211240BB60F922F933F934F935F9317
S11305406F937F938F939F93AF93BF93EF93FF9397
S1130550809124019091250190930D0280930C02C7
S1130560A0910C02B0910D0280910A0290910B02AD
S1130570A81BB90B20E432E44FE050E00E94F60AD5
S113058024E234EF40E050E00E94CE0A30939D0212
S113059020939C02A0919C02B0919D022EED33E029
S11305A00E94F00A9B01AC0160E07AEC8AE99BE3CB
S11305B0F5D7309397022093960280910C02909184
S11305C00D0290930B0280930A02FF91EF91BF9169
S11305D0AF919F918F917F916F915F914F913F91D7
S11305E02F910F900BBE0F900FBE0F901F90189578
S11305F08BEA8093800080EE84B9089583E8809329
S1130600900088E08DB908958CE08093810008956E
S11306108CE08093910008959093890080938800E2
S1130620089590938B0080938A00089590938D0091
S113063080938C0008959093990080939800089576
S1130640CF92DF92EF92FF92C0900002D09001020D
S1130650E0900202F090030260919A0270919B0272
S1130660072E000C880B990B82D69B01AC01C701A5
S1130670B601E1D560937602709377028093780295
S1130680909379026091760270917702809178025A
S11306909091790223EC35EF48E850E41CD760933D
S11306A07202709373028093740290937502609146
S11306B0760270917702809178029091790227EE08
S11306C03BEF49EE5EE307D7209166023091670263
S11306D04091680250916902AFD560936E027093A5
S11306E06F02809370029093710260917602709110
S11306F07702809178029091790220919202309150
S11307009302409194025091950295D520E030E0F7
S1130710A901E1D660936A0270936B0280936C0224
S113072090936D0260916E0270916F0280917002DD
S11307309091710220E030EC4FE754E4C8D61816CB
S113074064F480E090ECAFE7B4E480936E0290939D
S11307506F02A0937002B093710260916E02709167
S11307606F02809170029091710220E030E0A90143
S1130770C7D5882344F410926E0210926F0210922F
S113078070021092710280916E0290916F02A0919A
S11307907002B09171028093660290936702A093F5
S11307A06802B09369028091760290917702A091D9
S11307B07802B09179028093920290939302A0936D
S11307C09402B093950260917202709173028091C9
S11307D074029091750220916E0230916F024091E3
S11307E070025091710228D520916A0230916B02F7
S11307F040916C0250916D021FD560936202709318
S11308006302809364029093650260916202709126
S11308106302809164029091650220E030E0A901B6
S11308206FD5882344F410926202109263021092EE
S11308306402109265026091620270916302809179
S113084064029091650220E030EC4FE754E43FD617
S1130850181664F480E090ECAFE7B4E4809362028D
S113086090936302A0936402B09365026091620264
S113087070916302809164029091650245D5CB0129
S1130880CBDEFF90EF90DF90CF900895CF92DF9270
S1130890EF92FF92C0900002D0900102E090020219
S11308A0F09003026091860270918702072E000C7B
S11308B0880B990B5CD59B01AC01C701B601BBD475
S11308C060935E0270935F02809360029093610272
S11308D060915E0270915F0280916002909161026A
S11308E023EC35EF48E850E4F6D560935A02709350
S11308F05B0280935C0290935D0260915E02709152
S11309005F02809160029091610227EE3BEF49EE15
S11309105EE3E1D520914E0230914F0240915002A6
S11309205091510289D46093560270935702809378
S113093058029093590260915E0270915F02809117
S113094060029091610220917E0230917F02409179
S11309508002509181026FD420E030E0A901BBD520
S11309606093520270935302809354029093550201
S113097060915602709157028091580290915902E9
S113098020E030EC4FE754E4A2D5181664F480E07C
S113099090ECAFE7B4E48093560290935702A0938F
S11309A05802B09359026091560270915702809197
S11309B058029091590220E030E0A901A1D4882383
S11309C044F4109256021092570210925802109258
S11309D059028091560290915702A0915802B09109
S11309E0590280934E0290934F02A0935002B09309
S11309F0510280915E0290915F02A0916002B091D9
S1130A00610280937E0290937F02A0938002B09350
S1130A10810260915A0270915B0280915C02909114
S1130A205D02209156023091570240915802509134
S1130A30590202D42091520230915302409154023F
S1130A4050915502F9D360934A0270934B028093FC
S1130A504C0290934D0260914A0270914B02809136
S1130A604C0290914D0220E030E0A90149D4882342
S1130A7044F410924A0210924B0210924C021092CB
S1130A804D0260914A0270914B0280914C02909108
S1130A904D0220E030EC4FE754E419D5181664F405
S1130AA080E090ECAFE7B4E480934A0290934B0269
S1130AB0A0934C02B0934D0260914A0270914B0294
S1130AC080914C0290914D021FD4CB01AADDFF907E
S1130AD0EF90DF90CF900895CF92DF92EF92FF9244
S1130AE0C0900002D0900102E0900202F090030254
S1130AF06091A0027091A102072E000C880B990B43
S1130B0036D49B01AC01C701B60195D3609346026C
S1130B107093470280934802909349026091460281
S1130B2070914702809148029091490223EC35EF7D
S1130B3048E850E4D0D46093420270934302809317
S1130B40440290934502609146027091470280915D
S1130B5048029091490227EE3BEF49EE5EE3BBD495
S1130B602091360230913702409138025091390277
S1130B7063D360933E0270933F028093400290934C
S1130B80410260914602709147028091480290911F
S1130B90490220918E0230918F024091900250912F
S1130BA0910249D320E030E0A90195D460933A0240
S1130BB070933B0280933C0290933D0260913E020D
S1130BC070913F02809140029091410220E030EC0C
S1130BD04FE754E47CD4181664F480E090ECAFE75B
S1130BE0B4E480933E0290933F02A0934002B093FA
S1130BF0410260913E0270913F02809140029091C7
S1130C00410220E030E0A9017BD3882344F4109210
S1130C103E0210923F0210924002109241028091D3
S1130C203E0290913F02A0914002B0914102809314
S1130C30360290933702A0933802B0933902809120
S1130C40460290914702A0914802B09149028093D4
S1130C508E0290938F02A0939002B09391026091C0
S1130C604202709143028091440290914502209186
S1130C703E0230913F024091400250914102DCD249
S1130C8020913A0230913B0240913C0250913D0246
S1130C90D3D26093320270933302809334029093E0
S1130CA03502609132027091330280913402909146
S1130CB0350220E030E0A90123D3882344F41092C4
S1130CC03202109233021092340210923502609173
S1130CD0320270913302809134029091350220E007
S1130CE030EC4FE754E4F3D3181664F480E090EC4E
S1130CF0AFE7B4E48093320290933302A0933402BA
S1130D00B0933502609132027091330280913402C3
S1130D1090913502F9D2CB0189DCFF90EF90DF90FE
S1130D20CF900895CF92DF92EF92FF92C09000028D
S1130D30D0900102E0900202F090030260919602CA
S1130D4070919702072E000C880B990B10D39B010E
S1130D50AC01C701B6016FD260932E0270932F02CB
S1130D60809330029093310260912E0270912F0291
S1130D70809130029091310223EC35EF48E850E441
S1130D80AAD360932A0270932B0280932C0290932F
S1130D902D0260912E0270912F0280913002909169
S1130DA0310227EE3BEF49EE5EE395D320911E021C
S1130DB030911F0240912002509121023DD2609354
S1130DC0260270932702809328029093290260914F
S1130DD02E0270912F028091300290913102209165
S1130DE088023091890240918A0250918B0223D269
S1130DF020E030E0A9016FD36093220270932302B4
S1130E008093240290932502609126027091270218
S1130E10809128029091290220E030EC4FE754E4BD
S1130E2056D3181664F480E090ECAFE7B4E48093F2
S1130E30260290932702A0932802B093290260917E
S1130E40260270912702809128029091290220E0C5
S1130E5030E0A90155D2882344F41092260210925E
S1130E602702109228021092290280912602909162
S1130E702702A0912802B091290280931E02909328
S1130E801F02A0932002B093210280912E02909120
S1130E902F02A0913002B091310280938802909386
S1130EA08902A0938A02B0938B0260912A02709106
S1130EB02B0280912C0290912D02209126023091D8
S1130EC027024091280250912902B6D12091220292
S1130ED0309123024091240250912502ADD16093B8
S1130EE01A0270931B0280931C0290931D0260915E
S1130EF01A0270911B0280911C0290911D0220E045
S1130F0030E0A901FDD1882344F410921A02109212
S1130F101B0210921C0210921D0260911A02709121
S1130F201B0280911C0290911D0220E030EC4FE7DF
S1130F3054E4CDD2181664F480E090ECAFE7B4E446
S1130F4080931A0290931B02A0931C02B0931D027B
S1130F5060911A0270911B0280911C0290911D02F3
S1130F60D3D1CB0168DBFF90EF90DF90CF90089551
S1130F701F920F920FB60F9211240BB60F922F935C
S1130F803F934F935F936F937F938F939F93AF930D
S1130F90BF93EF93FF9354DB79DC9EDDC3DE1092A5
S1130FA0A5001092A400FF91EF91BF91AF919F9182
S1130FB08F917F916F915F914F913F912F910F90FE
S1130FC00BBE0F900FBE0F901F901895109220012A
S1130FD084E08093210180E1809301018FEF81B946
S1130FE081E080BB05DB0ADB0FDB12DB84EF91E0E1
S1130FF013DB84EF91E015DB84EF91E017DB84EFE2
S113100091E019CB089583E28093A0008CE0809353
S1131010A10082E0809372008DE790E09093A90094
S11310208093A80080EF809369008FE080936A002A
S11310308CE38DBB7894089580E090E0AAE7B4E453
S11310408093000290930102A0930202B0930302E2
S113105086E682B984EF91E0DFDA84EF91E0E1DAA9
S113106084EF91E0E3DA84EF91E0E5CA089580E04B
S113107090E0AAE7B3E48093000290930102A09366
S11310800202B093030285E582B960910002709177
S11310900102809102029091030236D1CB01BCDAA5
S11310A0609100027091010280910202909103020A
S11310B02BD1CB01B6DA60910002709101028091CC
S11310C002029091030220D1CB01B0DA60910002B8
S11310D070910102809102029091030215D1CB011B
S11310E0AACA089580E090E0AAE7B3E480930002DE
S11310F090930102A0930202B09303028AEA82B998
S113110060910002709101028091020290910302A9
S1131110FBD0CB0181DA60910002709101028091D1
S1131120020290910302F0D0CB017BDA60910002BD
S1131130709101028091020290910302E5D0CB01EB
S113114075DA60910002709101028091020290911F
S11311500302DAD0CB016FCA0895109200021092F4
S11311600102109202021092030260910002709137
S113117001028091020290910302C6D0CB0151DAA0
S11311806091000270910102809102029091030229
S1131190BBD0CB014BDA60910002709101028091C7
S11311A0020290910302B0D0CB0145DA2FEF80E721
S11311B092E0215080409040E1F700C0000060912F
S11311C000027091010280910202909103029CD06E
S11311D0CB0122CA08959093AB008093AA0008958E
S11311E089E390E0F8DF2FEF83EC99E02150804011
S11311F09040E1F700C000008EE190E0ECCF08954C
S113120080917A0290917B02A0917C02B0917D0240
S1131210892F9A2FAB2FBB27A7FDBA958093C500C2
S113122080917A028093C40088E98093C10086E0AB
S11312308093C20008955058BB27AA270ED00DC131
S1131240FED030F003D120F031F49F3F11F41EF4AE
S1131250F3C00EF4E095E7FBE9C0E92F0FD180F36A
S1131260BA17620773078407950718F071F49EF59F
S113127027C10EF4E0950B2EBA2FA02D0B01B90156
S113128090010C01CA01A0011124FF27591B99F0F8
S1131290593F50F4503E68F11A16F040A22F232F04
S11312A0342F4427585FF3CF469537952795A79554
S11312B0F0405395C9F77EF41F16BA0B620B730BFB
S11312C0840BBAF09150A1F0FF0FBB1F661F771F6C
S11312D0881FC2F70EC0BA0F621F731F841F48F421
S11312E0879577956795B795F7959E3F08F0B3CFA7
S11312F09395880F08F09927EE0F97958795089591
S113130071D008F481E0089504D06894B111D9C073
S11313100895BCD088F09F5790F0B92F9927B75102
S1131320A0F0D1F0660F771F881F991F1AF0BA95A5
S1131330C9F712C0B13081F0C3D0B1E00895C0C084
S1131340672F782F8827B85F39F0B93FCCF386959B
S113135077956795B395D9F73EF4909580957095F8
S113136061957F4F8F4F9F4F0895E89409C097FB75
S11313703EF490958095709561957F4F8F4F9F4F68
S11313809923A9F0F92F96E9BB279395F6958795AC
S113139077956795B795F111F8CFFAF4BB0F11F46F
S11313A060FF1BC06F5F7F4F8F4F9F4F16C0882316
S11313B011F096E911C0772321F09EE8872F762F4C
S11313C005C0662371F096E8862F70E060E02AF08D
S11313D09A95660F771F881FDAF7880F9695879579
S11313E097F90895990F0008550FAA0BE0E8FEEF4E
S11313F016161706E807F907C0F012161306E407D5
S1131400F50798F0621B730B840B950B39F40A26CD
S113141061F0232B242B252B21F408950A2609F4AB
S1131420A140A6958FEF811D811D089597F99F67AF
S113143080E870E060E008959FEF80EC0895002458
S11314400A941616170618060906089500240A9425
S113145012161306140605060895092E0394000CAB
S113146011F4882352F0BB0F40F4BF2B11F460FF3A
S113147004C06F5F7F4F8F4F9F4F089557FD905863
S1131480440F551F59F05F3F71F04795880F97FB44
S1131490991F61F09F3F79F08795089512161306FE
S11314A01406551FF2CF4695F1DF08C0161617062D
S11314B01806991FF1CF8695710561050894089562
S11314C0E894BB2766277727CB0197F908958ADF2D
S11314D008F48FEF08950BD0C0CFB1DF28F0B6DF4A
S11314E018F0952309F0A2CFA7CF1124EACFC6DFC5
S11314F0A0F3959FD1F3950F50E0551F629FF00123
S1131500729FBB27F00DB11D639FAA27F00DB11D7B
S1131510AA1F649F6627B00DA11D661F829F222704
S1131520B00DA11D621F739FB00DA11D621F839F8B
S1131530A00D611D221F749F3327A00D611D231F61
S1131540849F600D211D822F762F6A2F11249F57AF
S113155050408AF0E1F088234AF0EE0FFF1FBB1FD2
S1131560661F771F881F91505040A9F79E3F510571
S113157070F05CCFA6CF5F3FECF3983EDCF386952A
S113158077956795B795F795E7959F5FC1F7FE2B1C
S1131590880F911D9695879597F90895A1E21A2EC3
S11315A0AA1BBB1BFD010DC0AA1FBB1FEE1FFF1F03
S11315B0A217B307E407F50720F0A21BB30BE40B53
S11315C0F50B661F771F881F991F1A9469F760959A
S11315D07095809590959B01AC01BD01CF01089554
S11315E00BD0B7FF0895821B930B0895B7FF13C068
S11315F012D0821B930B0895A29FB001B39FC00128
S1131600A39F700D811D1124911DB29F700D811D2A
S11316101124911D0895F0DFA59F900DB49F900DA6
S1111620A49F800D911D11240895F894FFCF0E
S107162E0000FA4377
S9030000FC
