S00C00006D61696E2E7372656373
S113000071C0000091C00000F3C0000051C10000A5
S1130010AFC1000087C0000085C0000083C000009D
S113002081C000007FC000007DC000007BC00000D4
S113003079C0000077C0000075C0000073C00000E4
S113004071C000006FC000006DC000006BC00000F4
S113005069C00000DEC6000065C0000063C0000087
S113006061C000005FC000005DC000005BC0000014
S113007059C0000057C0000055C0000053C0000024
S113008051C000004FC000004DC000004BC0000034
S113009049C0000047C0000045C0000043C0000044
S11300A041C000003FC000003DC000003BC0000054
S11300B039C0000037C0000035C0000033C0000064
S11300C031C000002FC000002DC000002BC0000074
S11300D029C0000027C0000025C0000023C0000084
S11300E021C0000011241FBECFEFD1E2DEBFCDBF7F
S11300F000E00CBF12E0A0E0B2E0E2E6F2E100E0D2
S11301000BBF02C007900D92A030B107D9F722E0CF
S1130110A0E0B2E001C01D92A83BB207E1F703D012
S11301200C942F096DCFFFCF1F920F920FB60F9231
S113013011240BB60F922F933F934F935F936F93BA
S11301407F938F939F93AF93BF93EF93FF9380918C
S1130150A4009091A50090930F0280930E02A091A9
S11301600E02B0910F0280910C0290910D02A81B17
S1130170B90B20E432E44FE050E00E94100924E27D
S113018034EF40E050E00E94E80830939F0220934F
S11301909E02A0919E02B0919F022EED33E00E9438
S11301A00A099B01AC0160E07AEC8AE99BE30E94B6
S11301B0E8083093AD022093AC0280910E02909136
S11301C00F0290930D0280930C02FF91EF91BF9167
S11301D0AF919F918F917F916F915F914F913F91DB
S11301E02F910F900BBE0F900FBE0F901F9018957C
S11301F01F920F920FB60F9211240BB60F922F93EA
S11302003F934F935F936F937F938F939F93AF939A
S1130210BF93EF93FF938091A4009091A5009093D6
S11302200B0280930A02A0910A02B0910B02809102
S1130230080290910902A81BB90B20E432E44FE0B4
S113024050E0EED724E234EF40E050E0C1D73093E1
S1130250B5022093B402A091B402B091B5022EED80
S113026033E0D8D79B01AC0160E07AEC8AE99BE3E8
S1130270AFD7309399022093980280910A0290910B
S11302800B029093090280930802FF91EF91BF91B2
S1130290AF919F918F917F916F915F914F913F911A
S11302A02F910F900BBE0F900FBE0F901F901895BB
S11302B01F920F920FB60F9211240BB60F922F9329
S11302C03F934F935F936F937F938F939F93AF93DA
S11302D0BF93EF93FF938091A4009091A500909316
S11302E0070280930602A0910602B0910702809152
S11302F0040290910502A81BB90B20E432E44FE0FC
S113030050E08ED724E234EF40E050E061D73093E0
S1130310750220937402A0917402B09175022EEDBF
S113032033E078D79B01AC0160E07AEC8AE99BE387
S11303304FD73093B3022093B2028091060290917A
S113034007029093050280930402FF91EF91BF91FD
S1130350AF919F918F917F916F915F914F913F9159
S11303602F910F900BBE0F900FBE0F901F901895FA
S11303701F920F920FB60F9211240BB60F922F9368
S11303803F934F935F936F937F938F939F93AF9319
S1130390BF93EF93FF938091A4009091A500909355
S11303A0030280930202A0910202B09103028091A1
S11303B0000290910102A81BB90B20E432E44FE043
S11303C050E02ED724E234EF40E050E001D73093E0
S11303D0AF022093AE02A091AE02B091AF022EED17
S11303E033E018D79B01AC0160E07AEC8AE99BE327
S11303F0EFD63093A9022093A80280910202909133
S113040003029093010280930002FF91EF91BF9148
S1130410AF919F918F917F916F915F914F913F9198
S11304202F910F900BBE0F900FBE0F901F90189539
S11304309093890080938800089590938B00809313
S11304408A0008959093990080939800089590935A
S11304509B0080939A0008956091AC027091AD0264
S1130460072E000C880B990B9CD59B01AC0160E016
S113047070E08AE794E4F9D460936C0270936D029F
S113048080936E0290936F0260916C0270916D0282
S113049080916E0290916F0220E030E040EC50E4D5
S11304A034D6609368027093690280936A029093D1
S11304B06B0260915C0270915D0280915E0290918A
S11304C05F0220916C0230916D0240916E02509156
S11304D06F02CCD4609364027093650280936602C9
S11304E09093670260916C0270916D0280916E022C
S11304F090916F022091A4023091A5024091A6022E
S11305005091A702B2D46093600270936102809309
S1130510620290936302609164027091650280911B
S113052066029091670220E030EC4FE754E4E9D58D
S1130530181664F480E090ECAFE7B4E480936402AE
S113054090936502A0936602B0936702609164027F
S113055070916502809166029091670220E030E01C
S1130560A901E8D4882344F410926402109265022D
S11305701092660210926702809164029091650263
S1130580A0916602B091670280935C0290935D0231
S1130590A0935E02B0935F0280916C0290916D0211
S11305A0A0916E02B0916F028093A4029093A50271
S11305B0A093A602B093A7026091680270916902A9
S11305C080916A0290916B022091640230916502DD
S11305D0409166025091670249D4209160023091A3
S11305E06102409162025091630240D460935802C8
S11305F07093590280935A0290935B02609158025F
S11306007091590280915A0290915B0220E030E08F
S1130610A90190D4882344F41092580210925902EC
S113062010925A0210925B02609158027091590222
S113063080915A0290915B0220E030EC4FE754E441
S113064060D5181664F480E090ECAFE7B4E48093CE
S1130650580290935902A0935A02B0935B0260919E
S113066058027091590280915A0290915B0266D4AB
S1130670CB01DECE08956091980270919902072E05
S1130680000C880B990B8DD49B01AC0160E070E0E9
S11306908AE794E4EAD360935402709355028093FA
S11306A056029093570260915402709155028091C2
S11306B056029091570220E030E040EC50E425D5FA
S11306C060935002709351028093520290935302AC
S11306D060914402709145028091460290914702D4
S11306E02091540230915502409156025091570284
S11306F0BDD360934C0270934D0280934E0290934D
S11307004F0260915402709155028091560290916B
S113071057022091700230917102409172025091FF
S11307207302A3D3609348027093490280934A02F0
S113073090934B0260914C0270914D0280914E0255
S113074090914F0220E030EC4FE754E4DAD41816CD
S113075064F480E090ECAFE7B4E480934C029093AF
S11307604D02A0934E02B0934F0260914C027091DF
S11307704D0280914E0290914F0220E030E0A90199
S1130780D9D3882344F410924C0210924D02109253
S11307904E0210924F0280914C0290914D02A09112
S11307A04E02B0914F028093440290934502A0936D
S11307B04602B09347028091540290915502A09151
S11307C05602B09157028093700290937102A093E5
S11307D07202B09373026091500270915102809141
S11307E052029091530220914C0230914D0240915B
S11307F04E0250914F023AD320914802309149025F
S113080040914A0250914B0231D36093400270935D
S1130810410280934202909343026091400270919E
S11308204102809142029091430220E030E0A9010C
S113083081D3882344F41092400210924102109212
S113084042021092430260914002709141028091F1
S113085042029091430220E030EC4FE754E451D43B
S1130860181664F480E090ECAFE7B4E4809340029F
S113087090934102A0934202B093430260914002DC
S113088070914102809142029091430257D3CB016F
S1130890D4CD08956091B2027091B302072E000C7A
S11308A0880B990B7ED39B01AC0160E070E08AE772
S11308B094E4DBD260933C0270933D0280933E0249
S11308C090933F0260913C0270913D0280913E0200
S11308D090913F0220E030E040EC50E416D4609365
S11308E038027093390280933A0290933B026091EC
S11308F02C0270912D0280912E0290912F02209152
S11309003C0230913D0240913E0250913F02AED2F2
S113091060933402709335028093360290933702C9
S113092060913C0270913D0280913E0290913F02A1
S11309302091A0023091A1024091A2025091A30201
S113094094D2609330027093310280933202909378
S11309503302609134027091350280913602909195
S1130960370220E030EC4FE754E4CBD3181664F49C
S113097080E090ECAFE7B4E48093340290933502C6
S1130980A0933602B093370260913402709135021D
S1130990809136029091370220E030E0A901CAD25A
S11309A0882344F4109234021092350210923602D5
S11309B0109237028091340290913502A091360250
S11309C0B091370280932C0290932D02A0932E02B3
S11309D0B0932F0280913C0290913D02A0913E027F
S11309E0B0913F028093A0029093A102A093A2022F
S11309F0B093A302609138027091390280913A0257
S1130A0090913B022091340230913502409136029C
S1130A10509137022BD22091300230913102409113
S1130A2032025091330222D2609328027093290239
S1130A3080932A0290932B026091280270912902DC
S1130A4080912A0290912B0220E030E0A90172D219
S1130A50882344F4109228021092290210922A0248
S1130A6010922B02609128027091290280912A022F
S1130A7090912B0220E030EC4FE754E442D3181657
S1130A8064F480E090ECAFE7B4E4809328029093A0
S1130A902902A0932A02B0932B026091280270913C
S1130AA0290280912A0290912B0248D2CB01CACC10
S1130AB008956091A8027091A902072E000C880B7A
S1130AC0990B6FD29B01AC0160E070E08AE794E47B
S1130AD0CCD16093240270932502809326029093D4
S1130AE02702609124027091250280912602909140
S1130AF0270220E030E040EC50E407D3609320026A
S1130B007093210280932202909323026091140235
S1130B10709115028091160290911702209124027F
S1130B203091250240912602509127029FD1609373
S1130B301C0270931D0280931E0290931F02609109
S1130B40240270912502809126029091270220911F
S1130B509A0230919B0240919C0250919D0285D152
S1130B60609318027093190280931A0290931B02E7
S1130B7060911C0270911D0280911E0290911F02CF
S1130B8020E030EC4FE754E4BCD2181664F480E063
S1130B9090ECAFE7B4E480931C0290931D02A09301
S1130BA01E02B0931F0260911C0270911D0280917D
S1130BB01E0290911F0220E030E0A901BBD18823DE
S1130BC044F410921C0210921D0210921E02109204
S1130BD01F0280911C0290911D02A0911E02B091EF
S1130BE01F028093140290931502A0931602B093EF
S1130BF017028091240290912502A0912602B091BF
S1130C00270280939A0290939B02A0939C02B09334
S1130C109D026091200270912102809122029091A4
S1130C20230220911C0230911D0240911E0250911A
S1130C301F021CD1209118023091190240911A020E
S1130C4050911B0213D16093100270931102809390
S1130C50120290931302609110027091110280911C
S1130C6012029091130220E030E0A90163D188239D
S1130C7044F4109210021092110210921202109277
S1130C8013026091100270911102809112029091EE
S1130C90130220E030EC4FE754E433D2181664F426
S1130CA080E090ECAFE7B4E48093100290931102DB
S1130CB0A0931202B093130260911002709111027A
S1130CC0809112029091130239D1CB01C0CB0895C7
S1130CD080917602909177029923A4F4E5E0F1E003
S1130CE08081877080838081806180838091760297
S1130CF09091770291958195910990938B008093BF
S1130D008A0010C0E5E0F1E08081877080838081F3
S1130D1088608083809176029091770290938B0013
S1130D2080938A0080917E0290917F029923A4F49B
S1130D30E5E0F1E080818C71808380818160808333
S1130D4080917E0290917F02919581959109909373
S1130D5089008093880010C0E5E0F1E080818C7107
S1130D60808380818260808380917E0290917F0263
S1130D7090938900809388008091860290918702E5
S1130D80992394F482B1807E82B982B1886082B959
S1130D908091860290918702919581959109909313
S1130DA09B0080939A000EC082B1807E82B982B18A
S1130DB0806182B9809186029091870290939B0012
S1130DC080939A0080918E0290918F02992394F4DB
S1130DD082B1887382B982B1806882B980918E02AF
S1130DE090918F02919581959109909399008093A8
S1130DF09800089582B1887382B982B1806482B9FF
S1130E0080918E0290918F02909399008093980024
S1130E1008951F920F920FB60F9211240BB60F92E2
S1130E202F933F934F935F936F937F938F939F93EE
S1130E30AF93BF93EF93FF930FDB1DDC2BDD39DE04
S1130E4047DF16BCFF91EF91BF91AF919F918F91B6
S1130E507F916F915F914F913F912F910F900BBEB6
S1130E600F900FBE0F901F9018955058BB27AA27BC
S1130E700ED00DC1FED030F003D120F031F49F3FED
S1130E8011F41EF4F3C00EF4E095E7FBE9C0E92F7A
S1130E900FD180F3BA17620773078407950718F018
S1130EA071F49EF527C10EF4E0950B2EBA2FA02DF8
S1130EB00B01B90190010C01CA01A0011124FF2703
S1130EC0591B99F0593F50F4503E68F11A16F040FE
S1130ED0A22F232F342F4427585FF3CF46953795FD
S1130EE02795A795F0405395C9F77EF41F16BA0BC2
S1130EF0620B730B840BBAF09150A1F0FF0FBB1F70
S1130F00661F771F881FC2F70EC0BA0F621F731FB8
S1130F10841F48F4879577956795B795F7959E3F15
S1130F2008F0B3CF9395880F08F09927EE0F9795A3
S1130F308795089571D008F481E0089504D06894E9
S1130F40B111D9C00895BCD088F09F5790F0B92F43
S1130F509927B751A0F0D1F0660F771F881F991F0A
S1130F601AF0BA95C9F712C0B13081F0C3D0B1E01C
S1130F700895C0C0672F782F8827B85F39F0B93F2C
S1130F80CCF3869577956795B395D9F73EF490950C
S1130F908095709561957F4F8F4F9F4F0895E8948A
S1130FA009C097FB3EF490958095709561957F4FAD
S1130FB08F4F9F4F9923A9F0F92F96E9BB2793955B
S1130FC0F695879577956795B795F111F8CFFAF46B
S1130FD0BB0F11F460FF1BC06F5F7F4F8F4F9F4F9C
S1130FE016C0882311F096E911C0772321F09EE8FA
S1130FF0872F762F05C0662371F096E8862F70E060
S113100060E02AF09A95660F771F881FDAF7880F39
S11310109695879597F90895990F0008550FAA0B8F
S1131020E0E8FEEF16161706E807F907C0F01216F7
S11310301306E407F50798F0621B730B840B950BFA
S113104039F40A2661F0232B242B252B21F408954F
S11310500A2609F4A140A6958FEF811D811D0895EC
S113106097F99F6780E870E060E008959FEF80EC57
S1131070089500240A9416161706180609060895FA
S113108000240A9412161306140605060895092E60
S11310900394000C11F4882352F0BB0F40F4BF2BCF
S11310A011F460FF04C06F5F7F4F8F4F9F4F08950F
S11310B057FD9058440F551F59F05F3F71F0479505
S11310C0880F97FB991F61F09F3F79F087950895EA
S11310D0121613061406551FF2CF4695F1DF08C009
S11310E0161617061806991FF1CF86957105610526
S11310F008940895E894BB2766277727CB0197F9CE
S113110008958ADF08F48FEF08950BD0C0CFB1DFC4
S113111028F0B6DF18F0952309F0A2CFA7CF112449
S1131120EACFC6DFA0F3959FD1F3950F50E0551F8A
S1131130629FF001729FBB27F00DB11D639FAA2728
S1131140F00DB11DAA1F649F6627B00DA11D661F77
S1131150829F2227B00DA11D621F739FB00DA11D98
S1131160621F839FA00D611D221F749F3327A00D52
S1131170611D231F849F600D211D822F762F6A2FEE
S113118011249F5750408AF0E1F088234AF0EE0F73
S1131190FF1FBB1F661F771F881F91505040A9F780
S11311A09E3F510570F05CCFA6CF5F3FECF3983EB5
S11311B0DCF3869577956795B795F795E7959F5FE7
S11311C0C1F7FE2B880F911D9695879597F9089581
S11311D0A1E21A2EAA1BBB1BFD010DC0AA1FBB1F37
S11311E0EE1FFF1FA217B307E407F50720F0A21BA9
S11311F0B30BE40BF50B661F771F881F991F1A9416
S113120069F760957095809590959B01AC01BD013F
S1131210CF0108950BD0B7FF0895821B930B089557
S1131220B7FF13C012D0821B930B0895A29FB00185
S1131230B39FC001A39F700D811D1124911DB29F06
S1131240700D811D1124911D0895F0DFA59F900D4F
S1131250B49F900DA49F800D911D11240895F894BE
S1051260FFCFBA
S9030000FC
