S00C00006D61696E2E7372656373
S113000071C0000090C000008EC0000006C1000056
S113001068C10000CAC1000047C2000084C00000DB
S113002082C0000080C00000FBC700007CC000004C
S11300307AC0000078C0000076C0000074C00000E0
S113004072C0000070C000006EC000006CC00000F0
S11300506AC0000068C0000066C0000064C0000000
S113006062C0000060C000005EC000005CC0000010
S11300705AC0000058C0000056C0000054C0000020
S113008052C0000050C000004EC000004CC0000030
S11300904AC0000048C0000046C0000057C000002D
S11300A042C0000040C000008DC700003CC00000FA
S11300B03AC0000038C0000036C0000034C0000060
S11300C032C0000030C000002EC000002CC0000070
S11300D02AC0000028C0000026C0000024C0000080
S11300E022C0000011241FBECFEFD1E2DEBFCDBF7E
S11300F000E00CBF12E0A0E0B2E0ECE0FAE100E0C6
S11301000BBF02C007900D92AC30B107D9F722E0C3
S1130110ACE0B2E001C01D92AE3BB207E1F70E9431
S11301209F080C94040D6CCF90930F0280930E02E1
S113013070930D0260930C020895F894880F8093D5
S1130140BA0085EC8093BC00789408951F920F92B6
S11301500FB60F9211240BB60F922F933F934F9328
S11301605F936F937F938F939F93AF93BF93EF931B
S1130170FF938091B900887F803849F018F4882370
S113018019F128C0883A71F0883BA9F023C0809106
S1130190BB00E0910E02F0910F02199585EC80935B
S11301A0BC001BC0E0910C02F0910D02199585EC86
S11301B08093BC0012C0E0910C02F0910D021995DD
S11301C085EC8093BC0009C0ECEBF0E0108285EC78
S11301D0808303C085EC8093BC00FF91EF91BF91B5
S11301E0AF919F918F917F916F915F914F913F91CB
S11301F02F910F900BBE0F900FBE0F901F9018956C
S113020090E090931B0280931A02089580911A0241
S113021090911B028093BB0008951F920F920FB61A
S11302200F9211240BB60F922F933F934F935F932A
S11302306F937F938F939F93AF93BF93EF93FF93AA
S1130240809124019091250190932D0280932C029A
S1130250A0912C02B0912D0280912A0290912B0240
S1130260A81BB90B20E432E44FE050E00E94090CD3
S113027024E234EF40E050E00E94E10B3093A1020D
S11302802093A002A091A002B091A1022EED33E030
S11302900E94030C9B01AC0160E07AEC8AE99BE3C9
S11302A00E94E10B3093AF022093AE0280912C02A6
S11302B090912D0290932B0280932A02FF91EF914B
S11302C0BF91AF919F918F917F916F915F914F916A
S11302D03F912F910F900BBE0F900FBE0F901F9068
S11302E018951F920F920FB60F9211240BB60F920E
S11302F02F933F934F935F936F937F938F939F932A
S1130300AF93BF93EF93FF938091240190912501C4
S11303109093290280932802A0912802B091290287
S11303208091260290912702A81BB90B20E432E4A5
S11303304FE050E00E94090C24E234EF40E050E02A
S11303400E94E10B3093BB022093BA02A091BA023F
S1130350B091BB022EED33E00E94030C9B01AC0173
S113036060E07AEC8AE99BE30E94E10B30939B0204
S113037020939A0280912802909129029093270257
S113038080932602FF91EF91BF91AF919F918F913E
S11303907F916F915F914F913F912F910F900BBE81
S11303A00F900FBE0F901F9018951F920F920FB6CB
S11303B00F9211240BB60F922F933F934F935F9399
S11303C06F937F938F939F93AF93BF93EF93FF9319
S11303D08091240190912501909325028093240219
S11303E0A0912402B09125028091220290912302CF
S11303F0A81BB90B20E432E44FE050E00E94090C42
S113040024E234EF40E050E00E94E10B3093970285
S113041020939602A0919602B09197022EED33E0BC
S11304200E94030C9B01AC0160E07AEC8AE99BE337
S11304300E94E10B3093B9022093B8028091240208
S113044090912502909323028093220280911C02B2
S113045090911D02019690931D0280931C0240917D
S11304601C0250911D02952F990F990B242F352FA3
S1130470492F592F692F792F892F03D785E092E0CF
S1130480E3D6FF91EF91BF91AF919F918F917F91AF
S11304906F915F914F913F912F910F900BBE0F90F1
S11304A00FBE0F901F9018951F920F920FB60F92C8
S11304B011240BB60F922F933F934F935F936F9337
S11304C07F938F939F93AF93BF93EF93FF93809109
S11304D02401909125019093210280932002A09100
S11304E02002B091210280911E0290911F02A81B4C
S11304F0B90B20E432E44FE050E00E94090C24E2FE
S113050034EF40E050E00E94E10B3093B1022093BD
S1130510B002A091B002B091B1022EED33E00E947E
S1130520030C9B01AC0160E07AEC8AE99BE30E9436
S1130530E10B3093AB022093AA02809120029091A8
S1130540210290931F0280931E02FF91EF91BF91AD
S1130550AF919F918F917F916F915F914F913F9157
S11305602F910F900BBE0F900FBE0F901F901895F8
S11305708BEA8093800080EE84B9089583E88093A9
S1130580900088E08DB908958CE0809381000895EF
S11305908CE0809391000895909389008093880063
S11305A0089590938B0080938A00089590938D0012
S11305B080938C00089590939900809398000895F7
S11305C0CF92DF92EF92FF92C0900102D09002028C
S11305D0E0900302F09004026091AE027091AF02C9
S11305E0072E000C880B990BD5D79B01AC01C701D2
S11305F0B60134D760938A0270938B0280938C0285
S113060090938D0260918A0270918B0280918C028A
S113061090918D0228EB3EE145E850E40E947E0B68
S11306206093860270938702809388029093890274
S113063060918A0270918B0280918C0290918D025C
S113064028EB3EE145E05EE30E947E0B20917A02B6
S113065030917B0240917C0250917D0200D76093DF
S11306608202709383028093840290938502609146
S11306708A0270918B0280918C0290918D0220915C
S1130680A6023091A7024091A8025091A902E6D691
S113069020EF35E849EC5CE30E947E0B60937E0218
S11306A070937F0280938002909381026091820212
S11306B070918302809184029091850220E030EC55
S11306C04FE754E40E947A0B181664F480E090EC2F
S11306D0AFE7B4E48093820290938302A0938402F0
S11306E0B0938502609182027091830280918402AA
S11306F09091850220E030E0A90115D7882344F4C5
S11307001092820210928302109284021092850247
S11307108091820290918302A0918402B09185021B
S113072080937A0290937B02A0937C02B0937D0223
S113073080918A0290918B02A0918C02B0918D02DB
S11307408093A6029093A702A093A802B093A90253
S1130750609186027091870280918802909189024B
S1130760209182023091830240918402509185024B
S113077076D620917E0230917F0240918002509182
S113078081026DD66093760270937702809378022B
S11307909093790260917602709177028091780249
S11307A09091790220E030E0A901BDD6882344F479
S11307B010927602109277021092780210927902C7
S11307C0609176027091770280917802909179021B
S11307D020E030EC4FE754E48DD7181664F480E041
S11307E090ECAFE7B4E48093760290937702A09301
S11307F07802B093790260917602709177028091C9
S113080078029091790293D6CB01D5DEFF90EF90D8
S1130810DF90CF900895CF92DF92EF92FF92C09035
S11308200102D0900202E0900302F0900402609171
S11308309A0270919B02072E000C880B990BAAD682
S11308409B01AC01C701B60109D660937202709393
S11308507302809374029093750260917202709196
S11308607302809174029091750228EB3EE145E891
S113087050E444D760936E0270936F0280937002C9
S1130880909371026091720270917302809174026C
S11308909091750228EB3EE145E05EE32FD720916D
S11308A06202309163024091640250916502D7D58F
S11308B060936A0270936B0280936C0290936D0252
S11308C0609172027091730280917402909175022A
S11308D0209192023091930240919402509195029A
S11308E0BDD520EF35E849EC5CE308D76093660298
S11308F070936702809368029093690260916A0220
S113090070916B0280916C0290916D0220E030EC4A
S11309104FE754E4EFD6181664F480E090ECAFE7A8
S1130920B4E480936A0290936B02A0936C02B09338
S11309306D0260916A0270916B0280916C029091D9
S11309406D0220E030E0A901EED5882344F4109232
S11309506A0210926B0210926C0210926D028091E6
S11309606A0290916B02A0916C02B0916D02809327
S1130970620290936302A0936402B0936502809133
S1130980720290917302A0917402B09175028093E7
S1130990920290939302A0939402B0939502609173
S11309A06E0270916F028091700290917102209199
S11309B06A0230916B0240916C0250916D024FD5E6
S11309C02091660230916702409168025091690259
S11309D046D560935E0270935F02809360029093A9
S11309E0610260915E0270915F0280916002909159
S11309F0610220E030E0A90196D5882344F41092E6
S1130A005E0210925F021092600210926102609185
S1130A105E0270915F02809160029091610220E019
S1130A2030EC4FE754E466D6181664F480E090EC9A
S1130A30AFE7B4E480935E0290935F02A0936002F8
S1130A40B093610260915E0270915F0280916002D6
S1130A50909161026CD5CB01A4DDFF90EF90DF9003
S1130A60CF900895CF92DF92EF92FF92C09001024F
S1130A70D0900202E0900302F09004026091B80268
S1130A807091B902072E000C880B990B83D59B013A
S1130A90AC01C701B601E2D460935A0270935B02C1
S1130AA080935C0290935D0260915A0270915B02A4
S1130AB080915C0290915D0228EB3EE145E850E4B0
S1130AC01DD66093560270935702809358029093F8
S1130AD0590260915A0270915B0280915C0290917C
S1130AE05D0228EB3EE145E05EE308D620914A0230
S1130AF030914B0240914C0250914D02B0D460931E
S1130B005202709353028093540290935502609161
S1130B105A0270915B0280915C0290915D02209177
S1130B20A2023091A3024091A4025091A50296D44E
S1130B3020EF35E849EC5CE3E1D560934E02709315
S1130B404F0280935002909351026091520270912F
S1130B505302809154029091550220E030EC4FE70B
S1130B6054E4C8D5181664F480E090ECAFE7B4E41C
S1130B708093520290935302A0935402B09355026F
S1130B8060915202709153028091540290915502E7
S1130B9020E030E0A901C7D4882344F41092520223
S1130BA010925302109254021092550280915202F4
S1130BB090915302A0915402B091550280934A023D
S1130BC090934B02A0934C02B0934D0280915A0231
S1130BD090915B02A0915C02B0915D028093A202AD
S1130BE09093A302A093A402B093A502609156022D
S1130BF070915702809158029091590220915202AB
S1130C0030915302409154025091550228D42091BE
S1130C104E0230914F0240915002509151021FD424
S1130C20609346027093470280934802909349026E
S1130C306091460270914702809148029091490266
S1130C4020E030E0A9016FD4882344F410924602D6
S1130C501092470210924802109249026091460293
S1130C6070914702809148029091490220E030EC53
S1130C704FE754E43FD5181664F480E090ECAFE7F6
S1130C80B4E48093460290934702A0934802B09341
S1130C904902609146027091470280914802909106
S1130CA0490245D4CB0178DCFF90EF90DF90CF90E0
S1130CB00895CF92DF92EF92FF92C0900102D090FC
S1130CC00202E0900302F09004026091AA02709183
S1130CD0AB02072E000C880B990B5CD49B01AC0172
S1130CE0C701B601BBD36093420270934302809361
S1130CF044029093450260914202709143028091B4
S1130D0044029091450228EB3EE145E850E4F6D4D4
S1130D1060933E0270933F0280934002909341029D
S1130D206091420270914302809144029091450285
S1130D3028EB3EE145E05EE3E1D4209132023091BC
S1130D403302409134025091350289D360933A02C0
S1130D5070933B0280933C0290933D026091420267
S1130D6070914302809144029091450220919C022B
S1130D7030919D0240919E0250919F026FD320EFCB
S1130D8035E849EC5CE3BAD46093360270933702D9
S1130D90809338029093390260913A0270913B0239
S1130DA080913C0290913D0220E030EC4FE754E406
S1130DB0A1D4181664F480E090ECAFE7B4E4809317
S1130DC03A0290933B02A0933C02B0933D0260919F
S1130DD03A0270913B0280913C0290913D0220E0E6
S1130DE030E0A901A0D3882344F410923A0210926F
S1130DF03B0210923C0210923D0280913A02909183
S1130E003B02A0913C02B0913D0280933202909348
S1130E103302A0933402B093350280914202909140
S1130E204302A0914402B091450280939C029093A6
S1130E309D02A0939E02B0939F0260913E02709126
S1130E403F02809140029091410220913A023091F8
S1130E503B0240913C0250913D0201D32091360265
S1130E60309137024091380250913902F8D26093A0
S1130E702E0270932F02809330029093310260917E
S1130E802E0270912F02809130029091310220E065
S1130E9030E0A90148D3882344F410922E02109222
S1130EA02F02109230021092310260912E02709142
S1130EB02F02809130029091310220E030EC4FE714
S1130EC054E418D4181664F480E090ECAFE7B4E46A
S1130ED080932E0290932F02A0933002B09331029C
S1130EE060912E0270912F02809130029091310214
S1130EF01ED3CB015BDBFF90EF90DF90CF90089582
S1130F001092010210920202109203021092040243
S1130F106091010270910202809103029091040297
S1130F2006D3CB0148DB60910102709102028091EB
S1130F30030290910402FBD2CB012EDB2FEF83EC52
S1130F4099E0215080409040E1F700C0000060919A
S1130F500102709102028091030290910402E7D28F
S1130F60CB011FDB609101027091020280910302A8
S1130F7090910402DCD2CB0119CB089580E090E07B
S1130F80A6E1B4E48093010290930202A0930302C9
S1130F90B093040286E582B984EF91E00CDB2FEF75
S1130FA083EC99E0215080409040E1F700C00000BC
S1130FB084EF91E0F1DA84EF91E0F3DA84EF91E0E9
S1130FC0F5CA08951F920F920FB60F9211240BB613
S1130FD00F922F933F934F935F936F937F938F93CE
S1130FE09F93AF93BF93EF93FF93EADA14DC3ADD58
S1130FF060DE1092A5001092A400FF91EF91BF91C2
S1131000AF919F918F917F916F915F914F913F919C
S11310102F910F900BBE0F900FBE0F901F9018953D
S11310201F920F920FB60F9211240BB60F922F93AB
S11310303F934F935F936F937F938F939F93AF935C
S1131040BF93EF93FF93E3E0F1E09081809100027E
S1131050892790819093000281FF5EC080911802DD
S1131060909119020196909319028093180280912D
S113107018029091190280FD4CC0409118025091C1
S11310801902952F990F990B242F352F492F592F7A
S1131090692F792F892FF5D085E092E0D5D0809102
S11310A02401909125019093170280931602A09138
S11310B02C02B0912D028091120290911302A81B70
S11310C0B90B20E432E44FE050E0A3D324E234EF40
S11310D040E050E076D33093150220931402A0919F
S11310E0A002B091A1022EED33E08DD39B01AC019F
S11310F060E07AEC8AE99BE364D330931102209395
S1131100100280911602909117029093130280931B
S113111012028FE080930002FF91EF91BF91AF9193
S11311209F918F917F916F915F914F913F912F91FB
S11311300F900BBE0F900FBE0F901F90189562D0AA
S113114080EF809369008FE080936A008CE38DBB0D
S113115082E0809368008BBB94E090936C001092C3
S113116004018093050178942FEF21B926E522B973
S113117020EC27B920E428B9C1E0C3BBC4BB10925A
S113118020019093210190E1909301019093020139
S113119093E29093A0009CE09093A100809372004E
S11311A08DE790E09093A9008093A800E1D9E6D957
S11311B02FEF87EA91E6215080409040E1F700C08C
S11311C00000E2D9E5D980E10E949D0066E071E06B
S11311D080E091E00E949400C0BBD0DE2FEF87EA4C
S11311E091E6215080409040E1F700C0000088DE85
S11311F02FEF83ED90E3215080409040E1F700C051
S11312000000EBCF80918E0290918F02A09190020A
S1131210B0919102892F9A2FAB2FBB27A7FDBA95C6
S11312208093C50080918E028093C40088E98093E6
S1131230C10086E08093C20008959091C00095FF9C
S1131240FCCF8093C60008950F931F93CF93DF9331
S11312508C01C0E0D0E006C0F801EC0FFD1F8081D6
S1131260ECDF2196F80101900020E9F73197E01BAB
S1131270F10BCE17DF0780F3DF91CF911F910F9110
S113128008952F923F924F925F926F927F928F9226
S11312909F92AF92BF92CF92DF92EF92FF920F9301
S11312A01F93CF93DF93CDB7DEB7C354D1090FB6E5
S11312B0F894DEBF0FBECDBF22962FAF22972396A0
S11312C03FAF239724964FAF2497852E762E672E13
S11312D0382E292EA0E073D304F587E092E0B4DF22
S11312E022962FAD229723963FAD239724964FAD98
S11312F02497582D672D762D832D922D19D3229660
S11313002FAF229723963FAF239724964FAF24976E
S1131310852E762E672E382E292E22962FAD2297D3
S113132023963FAD239724964FAD2497582D672DD0
S1131330762D832D922DA0E042D361F480E37DDFEE
S113134073C0E1E0F0E0EC0FFD1FE80FF11D108227
S11313508F5F01C080E08032A0F30F2EFFE19F2E4B
S1131360F02D42C0492C512C0F2EFAE0AF2EF02D57
S1131370B12CC12CD12CE12CF12C00E010E02296F0
S11313802FAD229723963FAD239724964FAD2497F4
S1131390582D672D762D832D922D41D2E1E0F0E07A
S11313A0EC0FFD1FE40DF51D205D208322962FAD6B
S11313B0229723963FAD239724964FAD2497582D1B
S11313C0672D762D832D922D2CD222962FAF229726
S11313D023963FAF239724964FAF2497852E762EDE
S11313E0672E382E292E9A9422962FAD2297239673
S11313F03FAD239724964FAD2497582D672D762D16
S1131400832D922DA0E0DBD209F0ACCF10E00AC00E
S1131410E1E0F0E0EC0FFD1FE10FF11D808181118F
S11314200CDF1F5F1032A0F3CD5BDF4F0FB6F894D3
S1131430DEBF0FBECDBFDF91CF911F910F91FF9003
S1131440EF90DF90CF90BF90AF909F908F907F9060
S11314506F905F904F903F902F9008955058BB2706
S1131460AA270ED00DC1FED030F003D120F031F404
S11314709F3F11F41EF4F3C00EF4E095E7FBE9C0BE
S1131480E92F0FD180F3BA17620773078407950712
S113149018F071F49EF527C10EF4E0950B2EBA2FC7
S11314A0A02D0B01B90190010C01CA01A001112466
S11314B0FF27591B99F0593F50F4503E68F11A1612
S11314C0F040A22F232F342F4427585FF3CF4695A3
S11314D037952795A795F0405395C9F77EF41F16C5
S11314E0BA0B620B730B840BBAF09150A1F0FF0F8F
S11314F0BB1F661F771F881FC2F70EC0BA0F621F7B
S1131500731F841F48F4879577956795B795F7956A
S11315109E3F08F0B3CF9395880F08F09927EE0FFC
S113152097958795089571D008F481E0089504D0C3
S11315306894B111D9C00895BCD088F09F5790F039
S1131540B92F9927B751A0F0D1F0660F771F881FE4
S1131550991F1AF0BA95C9F712C0B13081F0C3D0FF
S1131560B1E00895C0C0672F782F8827B85F39F09D
S1131570B93FCCF3869577956795B395D9F73EF443
S113158090958095709561957F4F8F4F9F4F0895EB
S1131590E89409C097FB3EF4909580957095619509
S11315A07F4F8F4F9F4F9923A9F0F92F96E9BB27BF
S11315B09395F695879577956795B795F111F8CF3B
S11315C0FAF4BB0F11F460FF1BC06F5F7F4F8F4FA6
S11315D09F4F16C0882311F096E911C0772321F09C
S11315E09EE8872F762F05C0662371F096E8862F34
S11315F070E060E02AF09A95660F771F881FDAF78B
S1131600880F9695879597F90895990F0008550FB7
S1131610AA0BE0E8FEEF16161706E807F907C0F074
S113162012161306E407F50798F0621B730B840B7C
S1131630950B39F40A2661F0232B242B252B21F456
S113164008950A2609F4A140A6958FEF811D811DF6
S1131650089597F99F6780E870E060E008959FEF30
S113166080EC089500240A94161617061806090635
S1131670089500240A941216130614060506089504
S1131680092E0394000C11F4882352F0BB0F40F48C
S1131690BF2B11F460FF04C06F5F7F4F8F4F9F4FCC
S11316A0089557FD9058440F551F59F05F3F71F04E
S11316B04795880F97FB991F61F09F3F79F08795B5
S11316C00895121613061406551FF2CF4695F1DF3E
S11316D008C0161617061806991FF1CF86957105CE
S11316E0610508940895E894BB2766277727CB0102
S11316F097F908958ADF08F48FEF08950BD0C0CFCF
S1131700B1DF28F0B6DF18F0952309F0A2CFA7CFF8
S11317101124EACFC6DFA0F3959FD1F3950F50E0D3
S1131720551F629FF001729FBB27F00DB11D639F8F
S1131730AA27F00DB11DAA1F649F6627B00DA11D35
S1131740661F829F2227B00DA11D621F739FB00DDB
S1131750A11D621F839FA00D611D221F749F33274B
S1131760A00D611D231F849F600D211D822F762FE4
S11317706A2F11249F5750408AF0E1F088234AF0E1
S1131780EE0FFF1FBB1F661F771F881F915050402D
S1131790A9F79E3F510570F05CCFA6CF5F3FECF3F5
S11317A0983EDCF3869577956795B795F795E79519
S11317B09F5FC1F7FE2B880F911D9695879597F92A
S11317C00895A1E21A2EAA1BBB1BFD010DC0AA1F7E
S11317D0BB1FEE1FFF1FA217B307E407F50720F096
S11317E0A21BB30BE40BF50B661F771F881F991F11
S11317F01A9469F760957095809590959B01AC015A
S1131800BD01CF010895E7D0B7FF0895821B930B64
S11318100895B7FFEFC0EED0821B930B0895689430
S113182001C0E894F92FF12B0AF027C0A0E0B0E042
S1131830EBE1FCE093C0092E05941AF479D011234E
S113184092F4F0E80F26FFEFE094F09400951095E1
S1131850B094C094D094A194BF0ACF0ADF0AEF0ACF
S1131860FF0A0F0B1F0B13D007FC62D0CDB7DEB7F6
S1131870ECE090C0689401C0E8948F929F92CF935B
S1131880DF9305D0DF91CF919F908F9008958824A6
S11318909924F401E401B0E49F93AA279A158B04D8
S11318A09C04ED05FE05CF05D007A10798F4AD2FE4
S11318B0DC2FCF2FFE2FE92D982C892E982F872FE0
S11318C0762F652F542F432F322F2227B85031F70C
S11318D0BF9127C01B2EBF91BB27220F331F441F6C
S11318E0551F661F771F881F991F881C991CEE1FA0
S11318F0FF1FCC1FDD1FAA1FBB1F8A149B04EC050E
S1131900FD05CE05DF05A007B10748F08A189B083E
S1131910EC09FD09CE09DF09A00BB10B21601A9473
S1131920E1F62EF49401AF01BE01CD01000C08953F
S1131930609570958095909530954095509521953A
S11319403F4F4F4F5F4F6F4F7F4F8F4F9F4F0895C4
S11319502F923F924F925F926F927F928F929F92BB
S1131960AF92BF92CF92DF92EF92FF920F931F93A9
S1131970CF93DF93CDB7DEB7CA1BDB0B0FB6F8945A
S1131980DEBF0FBECDBF19942A88398848885F848A
S11319906E847D848C849B84AA84B984C884DF800B
S11319A0EE80FD800C811B81AA81B981CE0FD11DEF
S11319B00FB6F894DEBF0FBECDBFED01089500242D
S11319C0A7FD00942A1730054005500560057005F1
S11319D0800590050895A29FB001B39FC001A39F05
S11319E0700D811D1124911DB29F700D811D112454
S11319F0911D0895F0DFA59F900DB49F900DA49FB5
S10F1A00800D911D11240895F894FFCF6F
S10F1A0C0F0000FA430A002D002E000019
S9030000FC
